:020000040800F2
:1000000000800020C94D0008194E0008194E000854
:10001000194E0008194E0008194E00080000000093
:10002000000000000000000000000000194E000861
:10003000194E000800000000194E00084126000873
:10004000194E0008194E0008194E0008194E0008F4
:10005000194E0008194E0008194E0008194E0008E4
:10006000194E0008194E0008194E0008194E0008D4
:10007000194E0008194E0008194E0008194E0008C4
:10008000194E0008194E000829260008194E0008CC
:10009000194E0008194E0008194E0008194E0008A4
:1000A000194E0008194E0008194E0008194E000894
:1000B000194E000861240008194E0008194E000866
:1000C000194E0008194E0008194E0008194E000874
:1000D000194E0008194E0008194E0008194E000864
:1000E000194E0008194E0008194E0008194E000854
:1000F000194E0008194E0008194E0008192600086C
:10010000000000000000000000000000194E000880
:10011000194E0008194E0008194E0008194E000823
:10012000194E0008194E0008194E0008194E000813
:10013000194E000809260008000000000000000019
:10014000194E0008194E0008194E00080000000062
:10015000000000000000000000000000000000009F
:100160000000000000000000194E0008194E0008B1
:10017000194E000800000000000000000000000010
:0801800000000000194E000808
:1001880010B5054C237833B9044B13B10448AFF3C9
:1001980000800123237010BD740A002000000000B5
:1001A800C89E0008084B10B51BB108480849AFF3B2
:1001B80000800848036803B910BD074B002BFBD02B
:1001C800BDE81040184700BF00000000C89E0008A6
:1001D800780A0020740A0020000000004FEA41025B
:1001E800B2F1E04324BFB3F5001CDCF1FE5C0DD98D
:1001F80001F0004C4FEAC0024CEA5070B2F1004FD7
:1002080040EB830008BF20F00100704711F0804FD9
:1002180021D113F13872BCBF01F00040704741F49E
:1002280080114FEA5252C2F11802C2F1200C10FAA2
:100238000CF320FA02F018BF40F001004FEAC12386
:100248004FEAD32303FA0CFC40EA0C0023FA02F32A
:100258004FEA4303CCE77FEA625307D150EA013300
:100268001EBF4FF0FE4040F44000704701F00040D0
:1002780040F0FE4040F40000704700BF80F00040AE
:1002880002E000BF81F0004142001FBF5FEA410366
:1002980092EA030F7FEA226C7FEA236C6AD04FEA66
:1002A8001262D2EB1363C1BFD218414048404140AB
:1002B800B8BF5B42192B88BF704710F0004F40F45D
:1002C800000020F07F4018BF404211F0004F41F479
:1002D800000121F07F4118BF494292EA030F3FD045
:1002E800A2F1010241FA03FC10EB0C00C3F1200358
:1002F80001FA03F100F0004302D5494260EB4000E7
:10030800B0F5000F13D3B0F1807F06D340084FEA51
:10031800310102F10102FE2A51D2B1F1004F40EB46
:10032800C25008BF20F0010040EA030070474900AE
:1003380040EB000010F4000FA2F10102EDD1B0FA79
:1003480080FCACF1080CB2EB0C0200FA0CF0AABF6E
:1003580000EBC25052421843BCBFD040184370470C
:1003680092F0000F81F4000106BF80F40000013212
:10037800013BB5E74FEA41037FEA226C18BF7FEAE9
:10038800236C21D092EA030F04D092F0000F08BF2B
:100398000846704790EA010F1CBF0020704712F012
:1003A8007F4F04D1400028BF40F00040704712F151
:1003B80000723CBF00F50000704700F0004343F0B6
:1003C800FE4040F4000070477FEA226216BF0846EC
:1003D8007FEA23630146420206BF5FEA412390EAAF
:1003E800010F40F4800070474FF0000304E000BFA5
:1003F80010F0004348BF40425FEA000C08BF704756
:1004080043F0964301464FF000001CE050EA010219
:1004180008BF70474FF000030AE000BF50EA01022E
:1004280008BF704711F0004302D5404261EB41011B
:100438005FEA010C02BF84460146002043F0B64340
:1004480008BFA3F18053A3F50003BCFA8CF2083A65
:10045800A3EBC25310DB01FA02FC634400FA02FC6E
:10046800C2F12002BCF1004F20FA02F243EB020075
:1004780008BF20F00100704702F1200201FA02FCD7
:10048800C2F1200250EA4C0021FA02F243EB0200CA
:1004980008BF20EADC7070474FF0FF0C1CEAD0520E
:1004A8001EBF1CEAD15392EA0C0F93EA0C0F6FD0CF
:1004B8001A4480EA010C400218BF5FEA41211ED0AD
:1004C8004FF0006343EA501043EA5111A0FB013199
:1004D8000CF00040B1F5000F3EBF490041EAD3716E
:1004E8005B0040EA010062F17F02FD2A1DD8B3F1EA
:1004F800004F40EBC25008BF20F00100704790F059
:10050800000F0CF0004C08BF49024CEA502040EAAA
:1005180051207F3AC2BFD2F1FF0340EAC250704770
:1005280040F400004FF00003013A5DDC12F1190FAE
:10053800DCBF00F000407047C2F10002410021FA20
:1005480002F1C2F1200200FA02FC5FEA310040F138
:10055800000053EA4C0308BF20EADC70704792F0B1
:10056800000F00F0004C02BF400010F4000F013AE9
:10057800F9D040EA0C0093F0000F01F0004C02BFE4
:10058800490011F4000F013BF9D041EA0C018FE753
:100598000CEAD15392EA0C0F18BF93EA0C0F0AD059
:1005A80030F0004C18BF31F0004CD8D180EA01007F
:1005B80000F00040704790F0000F17BF90F0004F18
:1005C800084691F0000F91F0004F14D092EA0C0FFA
:1005D80001D142020FD193EA0C0F03D14B0218BF8D
:1005E800084608D180EA010000F0004040F0FE40D3
:1005F80040F40000704740F0FE4040F4400070476F
:100608004FF0FF0C1CEAD0521EBF1CEAD15392EAED
:100618000C0F93EA0C0F69D0A2EB030280EA010CDD
:1006280049024FEA402037D04FF0805343EA111176
:1006380043EA10130CF000408B4238BF5B0042F1D4
:100648007D024FF4000C8B4224BF5B1A40EA0C0079
:10065800B3EB510F24BFA3EB510340EA5C00B3EBAB
:10066800910F24BFA3EB910340EA9C00B3EBD10F99
:1006780024BFA3EBD10340EADC001B0118BF5FEAEB
:100688001C1CE0D1FD2A3FF650AF8B4240EBC25014
:1006980008BF20F0010070470CF0004C4CEA5020D5
:1006A8007F32C2BFD2F1FF0340EAC250704740F424
:1006B80000004FF00003013A37E792F0000F00F016
:1006C800004C02BF400010F4000F013AF9D040EA94
:1006D8000C0093F0000F01F0004C02BF490011F428
:1006E800000F013BF9D041EA0C0195E70CEAD15320
:1006F80092EA0C0F08D142027FF47DAF93EA0C0F07
:100708007FF470AF084676E793EA0C0F04D14B02EA
:100718003FF44CAF08466EE730F0004C18BF31F09C
:10072800004CCAD130F000427FF45CAF31F0004396
:100738007FF43CAF5FE700BF4FF0FF3C06E000BF2F
:100748004FF0010C02E000BF4FF0010C4DF804CD52
:100758004FEA40024FEA41037FEA226C18BF7FEA62
:10076800236C11D001B052EA530C18BF90EA010F64
:1007780058BFB2EB030088BFC81738BF6FEAE170F3
:1007880018BF40F0010070477FEA226C02D15FEA8F
:10079800402C05D17FEA236CE4D15FEA412CE1D0FB
:1007A8005DF8040B704700BF844608466146FFE7C2
:1007B8000FB5FFF7C9FF002848BF10F1000F0FBDA4
:1007C8004DF808EDFFF7F4FF0CBF012000205DF89D
:1007D80008FB00BF4DF808EDFFF7EAFF34BF012022
:1007E80000205DF808FB00BF4DF808EDFFF7E0FFBB
:1007F80094BF012000205DF808FB00BF4DF808ED0C
:10080800FFF7D2FF94BF012000205DF808FB00BF6E
:100818004DF808EDFFF7C8FF34BF012000205DF850
:1008280008FB00BF81F0004102E000BF83F00043F5
:1008380030B54FEA41044FEA430594EA050F08BF73
:1008480090EA020F1FBF54EA000C55EA020C7FEA37
:10085800645C7FEA655C00F0E2804FEA5454D4EBB4
:100868005555B8BF6D420CDD2C4480EA020281EA7E
:10087800030382EA000083EA010180EA020281EAB6
:100888000303362D88BF30BD11F0004F4FEA013108
:100898004FF4801C4CEA113102D0404261EB410117
:1008A80013F0004F4FEA03334CEA133302D052429D
:1008B80063EB430394EA050F00F0A780A4F1010459
:1008C800D5F1200E0DDB02FA0EFC22FA05F2801893
:1008D80041F1000103FA0EF2801843FA05F3594179
:1008E8000EE0A5F120050EF1200E012A03FA0EFCF8
:1008F80028BF4CF0020C43FA05F3C01851EBE37122
:1009080001F0004507D54FF0000EDCF1000C7EEB3E
:1009180000006EEB0101B1F5801F1BD3B1F5001F7C
:100928000CD349085FEA30004FEA3C0C04F101049B
:100938004FEA445212F5800F80F09A80BCF1004FC4
:1009480008BF5FEA500C50F1000041EB045141EA46
:10095800050130BD5FEA4C0C404141EB010111F447
:10096800801FA4F10104E9D191F0000F04BF0146F2
:100978000020B1FA81F308BF2033A3F10B03B3F1D0
:1009880020020CDA0C3208DD02F1140CC2F10C0260
:1009980001FA0CF021FA02F10CE002F11402D8BFBE
:1009A800C2F1200C01FA02F120FA0CFCDCBF41EA8A
:1009B8000C019040E41AA2BF01EB0451294330BD59
:1009C8006FEA04041F3C1CDA0C340EDC04F1140436
:1009D800C4F1200220FA04F001FA02F340EA03000D
:1009E80021FA04F345EA030130BDC4F10C04C4F153
:1009F800200220FA02F001FA04F340EA0300294633
:100A080030BD21FA04F0294630BD94F0000F83F47C
:100A1800801306BF81F480110134013D4EE77FEA5F
:100A2800645C18BF7FEA655C29D094EA050F08BFAB
:100A380090EA020F05D054EA000C04BF194610468C
:100A480030BD91EA030F1EBF0021002030BD5FEAD0
:100A5800545C05D14000494128BF41F0004130BDF8
:100A680014F580043CBF01F5801130BD01F000454C
:100A780045F0FE4141F470014FF0000030BD7FEABF
:100A8800645C1ABF194610467FEA655C1CBF0B46BA
:100A9800024650EA013406BF52EA033591EA030FD1
:100AA80041F4002130BD00BF90F0000F04BF0021C9
:100AB800704730B54FF4806404F132044FF00005FC
:100AC8004FF0000150E700BF90F0000F04BF002175
:100AD800704730B54FF4806404F1320410F00045DB
:100AE80048BF40424FF000013EE700BF42004FEAD6
:100AF800E2014FEA31014FEA02701FBF12F07F4353
:100B080093F07F4F81F06051704792F0000F14BF4F
:100B180093F07F4F704730B54FF4607401F0004593
:100B280021F0004120E700BF50EA010208BF7047EA
:100B380030B54FF000050AE050EA010208BF7047DF
:100B480030B511F0004502D5404261EB41014FF448
:100B5800806404F132045FEA915C3FF4DCAE4FF04C
:100B680003025FEADC0C18BF03325FEADC0C18BF33
:100B7800033202EBDC02C2F1200300FA03FC20FA84
:100B880002F001FA03FE40EA0E0021FA02F11444D1
:100B9800C1E600BF70B54FF0FF0C4CF4E06C1CEAE6
:100BA80011541DBF1CEA135594EA0C0F95EA0C0F5B
:100BB80000F0DEF82C4481EA030621EA4C5123EACE
:100BC8004C5350EA013518BF52EA033541F48011FD
:100BD80043F4801338D0A0FB02CE4FF00005E1FBB0
:100BE80002E506F00042E0FB03E54FF00006E1FBFA
:100BF80003569CF0000F18BF4EF0010EA4F1FF043D
:100C0800B6F5007F64F5407404D25FEA4E0E6D417C
:100C180046EB060642EAC62141EA55514FEAC5208D
:100C280040EA5E504FEACE2EB4F1FD0C88BFBCF509
:100C3800E06F1ED8BEF1004F08BF5FEA500E50F1BA
:100C4800000041EB045170BD06F0004646EA010180
:100C580040EA020081EA0301B4EB5C04C2BFD4EBB2
:100C68000C0541EA045170BD41F480114FF0000EAB
:100C7800013C00F3AB8014F1360FDEBF002001F019
:100C8800004170BDC4F10004203C35DA0C341BDC93
:100C980004F11404C4F1200500FA05F320FA04F065
:100CA80001FA05F240EA020001F0004221F0004199
:100CB80010EBD37021FA04F642EB06015EEA430E0C
:100CC80008BF20EAD37070BDC4F10C04C4F120053C
:100CD80000FA04F320FA05F001FA04F240EA0200EF
:100CE80001F0004110EBD37041F100015EEA430EC0
:100CF80008BF20EAD37070BDC4F1200500FA05F2E0
:100D08004EEA020E20FA04F301FA05F243EA02035E
:100D180021FA04F001F0004121FA04F220EA02006D
:100D280000EBD3705EEA430E08BF20EAD37070BDB3
:100D380094F0000F0FD101F00046400041EB010193
:100D480011F4801F08BF013CF7D041EA060195F075
:100D5800000F18BF704703F00046520043EB03032F
:100D680013F4801F08BF013DF7D043EA060370471C
:100D780094EA0C0F0CEA135518BF95EA0C0F0CD027
:100D880050EA410618BF52EA4306D1D181EA03016D
:100D980001F000414FF0000070BD50EA410606BF67
:100DA8001046194652EA430619D094EA0C0F02D1AC
:100DB80050EA013613D195EA0C0F05D152EA0336F1
:100DC8001CBF104619460AD181EA030101F000410F
:100DD80041F0FE4141F470014FF0000070BD41F058
:100DE800FE4141F4780170BD70B54FF0FF0C4CF432
:100DF800E06C1CEA11541DBF1CEA135594EA0C0F51
:100E080095EA0C0F00F0A7F8A4EB050481EA030E9D
:100E180052EA03354FEA013100F088804FEA033384
:100E28004FF0805545EA131343EA12634FEA022252
:100E380045EA111545EA10654FEA00260EF0004113
:100E48009D4208BF964244F1FD0404F5407402D265
:100E58005B084FEA3202B61A65EB03055B084FEAF6
:100E680032024FF480104FF4002CB6EB020E75EBF3
:100E7800030E22BFB61A754640EA0C005B084FEA1B
:100E88003202B6EB020E75EB030E22BFB61A754698
:100E980040EA5C005B084FEA3202B6EB020E75EBE3
:100EA800030E22BFB61A754640EA9C005B084FEA5B
:100EB8003202B6EB020E75EB030E22BFB61A754668
:100EC80040EADC0055EA060E18D04FEA051545EA57
:100ED80016754FEA06164FEAC30343EA52734FEA00
:100EE800C2025FEA1C1CC0D111F4801F0BD141EA79
:100EF80000014FF000004FF0004CB6E711F4801FDE
:100F080004BF01430020B4F1FD0C88BFBCF5E06FBD
:100F18003FF6AFAEB5EB030C04BFB6EB020C5FEACD
:100F2800500C50F1000041EB045170BD0EF0004E22
:100F38004EEA113114EB5C04C2BFD4EB0C0541EA54
:100F4800045170BD41F480114FF0000E013C90E651
:100F580045EA060E8DE60CEA135594EA0C0F08BF15
:100F680095EA0C0F3FF43BAF94EA0C0F0AD150EA14
:100F780001347FF434AF95EA0C0F7FF425AF1046A7
:100F880019462CE795EA0C0F06D152EA03353FF4CF
:100F9800FDAE1046194622E750EA410618BF52EA4C
:100FA80043067FF4C5AE50EA41047FF40DAF52EA20
:100FB80043057FF4EBAE12E74FF0FF3C06E000BFBD
:100FC8004FF0010C02E000BF4FF0010C4DF804CDCA
:100FD8004FEA410C7FEA6C5C4FEA430C18BF7FEA8A
:100FE8006C5C1BD001B050EA410C0CBF52EA430CB8
:100FF80091EA030F02BF90EA020F0020704710F138
:10100800000F91EA030F58BF994208BF90422CBFC6
:10101800D8176FEAE37040F0010070474FEA410CBF
:101028007FEA6C5C02D150EA013C07D14FEA430CDD
:101038007FEA6C5CD6D152EA033CD3D05DF8040B4E
:10104800704700BF8446104662468C461946634680
:1010580000E000BF01B5FFF7B7FF002848BF10F157
:10106800000F01BD4DF808EDFFF7F4FF0CBF01209C
:1010780000205DF808FB00BF4DF808EDFFF7EAFF18
:1010880034BF012000205DF808FB00BF4DF808EDD3
:10109800FFF7E0FF94BF012000205DF808FB00BFC8
:1010A8004DF808EDFFF7CEFF94BF012000205DF852
:1010B80008FB00BF4DF808EDFFF7C4FF34BF01205F
:1010C80000205DF808FB00BF4FEA410212F500124C
:1010D80015D211D56FF47873B3EB625212D94FEA77
:1010E800C12343F0004343EA505311F0004F23FA61
:1010F80002F018BF404270474FF00000704750EAB6
:10110800013005D111F0004008BF6FF00040704772
:101118004FF00000704700BF844641EA000313F017
:1011280003036DD1403A41D351F8043B40F8043BE6
:1011380051F8043B40F8043B51F8043B40F8043BA9
:1011480051F8043B40F8043B51F8043B40F8043B99
:1011580051F8043B40F8043B51F8043B40F8043B89
:1011680051F8043B40F8043B51F8043B40F8043B79
:1011780051F8043B40F8043B51F8043B40F8043B69
:1011880051F8043B40F8043B51F8043B40F8043B59
:1011980051F8043B40F8043B51F8043B40F8043B49
:1011A80051F8043B40F8043B403ABDD2303211D3E9
:1011B80051F8043B40F8043B51F8043B40F8043B29
:1011C80051F8043B40F8043B51F8043B40F8043B19
:1011D800103AEDD20C3205D351F8043B40F8043BE9
:1011E800043AF9D2043208D0D2071CBF11F8013BE7
:1011F80000F8013B01D30B8803806046704700BFAD
:10120800082A13D38B078DD010F003038AD0C3F1BB
:101218000403D21ADB071CBF11F8013B00F8013B9D
:1012280080D331F8023B20F8023B7BE7043AD9D35C
:10123800013A11F8013B00F8013BF9D20B78037031
:101248004B7843708B7883706046704753B94AB9BE
:10125800002908BF00281CBF4FF0FF314FF0FF30B6
:1012680000F03CB882B0EC462DE9005000F01EF8C2
:10127800DDF804E002B00CBC704700BF2DE9F04176
:10128800069C154606460F46984600F029F805FBC9
:1012980001F300FB0838A5FB0023B21A434467EBAF
:1012A8000303C4E90023BDE8F08100BF2DE9F04144
:1012B800069C904606460F461D4600F05FF900FB67
:1012C80005F5A0FB082308FB0155B21A2B4467EB70
:1012D8000303C4E90023BDE8F08100BF704700BFE5
:1012E80000292DE9F043C0F2A6800026002BC0F2A9
:1012F8009C80884694469E46154604460F46002B19
:101308003DD18A4259D9B2FA82F33BB1C3F12002E6
:101318009F4020FA02F29D4017439C40290C220C62
:10132800B7FBF1FEA8B201FB1E7742EA074700FBB4
:101338000EF3BB420AD97F190EF1FF3280F0058106
:10134800BB4240F20281AEF1020E2F44FF1AA4B252
:10135800B7FBF1F301FB137744EA074700FB03F0FF
:10136800B84208D97F1903F1FF3280F0F080B84203
:1013780040F2ED80023B43EA0E43002203E08B4239
:101388000FD900221346341C18BF012460424FF0C5
:10139800000565EB45015840514000196941BDE819
:1013A800F083B3FA83F2002A40F086808B4202D39E
:1013B800844500F2DB800123E5E712B90123B3FB82
:1013C800F2F5B5FA85F000283BD1781B4FEA154EA7
:1013D8001FFA85FC0122B0FBFEF8210C0EFB180752
:1013E80041EA07470CFB08F3BB4207D97F1908F10C
:1013F800FF3102D2BB4200F2BD808846FF1AA4B278
:10140800B7FBFEF30EFB137744EA07470CFB03FC1C
:10141800BC4507D97F1903F1FF3102D2BC4500F260
:10142800A7800B4643EA0843ADE752426FEA060637
:1014380063EB43035DE7404261EB41014FF0FF3648
:1014480054E7C0F1200224FA02F107FA00F38540BC
:101458004FEA154ED7401943B7FBFEF20B0C0EFBB3
:1014680012771FFA85FC43EA07430CFB02F79F42F9
:1014780004FA00F407D95B1902F1FF3074D29F42D5
:1014880072D9023A2B44DF1B89B2B7FBFEF80EFB78
:10149800187341EA03430CFB08F79F4208D95B190C
:1014A80008F1FF315CD29F425AD9A8F102082B44B7
:1014B800D81B48EA02428EE7C2F120032CFA03F156
:1014C8000EFA02FE20FA03F741EA0E0E08FA02F0BD
:1014D80028FA03F14FEA1E453843B1FBF5F8030C2F
:1014E80005FB18111FFA8EF743EA014107FB08F3C1
:1014F8008B420CFA02FC09D911EB0E0108F1FF39F5
:1015080030D28B422ED9A8F102087144C91A80B290
:10151800B1FBF5F305FB131140EA014107FB03F7A3
:101528008F4208D911EB0E0103F1FF3016D28F421A
:1015380014D9023B714443EA0843C91BA3FB0C8935
:10154800494509D305D000221DE79646FEE6134615
:1015580011E794404445F6D2013BF4E70346EAE735
:101568008846A5E7C846D1E702468CE713460AE74E
:10157800023B57E7A8F102082F443FE72DE9F04165
:10158800002B44D18A42154604464FD9B2FA82F755
:101598000E464FB1C7F12003B94020FA03F602FA0C
:1015A80007F50E4300FA07F44FEA154E230CB6FB75
:1015B800FEF0AFB20EFB106143EA014307FB00F1F6
:1015C800994209D95B1900F1FF3280F0EC80994209
:1015D80040F2E98002382B445A1AA4B2B2FBFEF357
:1015E8000EFB132244EA024207FB03F7974208D98D
:1015F800521903F1FF3180F0D880974240F2D5802C
:10160800023B43EA004000263146BDE8F0818B42A8
:1016180047D8B3FA83F6002E48D18B4202D38242D0
:1016280000F2CD8001203146BDE8F08112B90125D4
:10163800B5FBF2F5B5FA85F8B8F1000F77D14A1B7A
:101648004FEA154EAFB20126B2FBFEF0230C0EFB9B
:10165800102143EA014107FB00F38B4207D94919DE
:1016680000F1FF3202D28B4200F2BA801046C91A4A
:10167800A4B2B1FBFEF30EFB131144EA014407FBCD
:1016880003F7A74208D9641903F1FF3280F08F806D
:10169800A74240F28C80023B43EA00403146BDE855
:1016A800F081002630463146BDE8F081C6F12004BD
:1016B80022FA04F5B3402B4320FA04FC01FA06F79A
:1016C80021FA04F54FEA134E4CEA0707B5FBFEF87A
:1016D800390C0EFB18551FFA83FC41EA05450CFB33
:1016E80008F1A94202FA06F204D9ED1808F1FF340C
:1016F80067D3A0466D1ABFB2B5FBFEF40EFB1455B6
:1017080047EA05410CFB04FC8C4504D9C91804F1CF
:10171800FF355CD32C4644EA0844CCEB0101A4FB1A
:101728000223994248D344D0204600266CE7C8F1EA
:10173800200401FA08F305FA08F520FA04F7E14055
:101748004FEA154E1F43B1FBFEF63A0C0EFB16117D
:101758001FFA85FC42EA01430CFB06F29A4200FAA2
:1017680008F407D95B1906F1FF3137D29A4235D907
:10177800023E2B449B1ABFB2B3FBFEF00EFB1033A4
:1017880047EA03430CFB00F1994207D95B1900F1C2
:10179800FF3221D299421FD902382B445A1A40EA03
:1017A8000646674650E7104616E70B4629E71346F4
:1017B80072E7B0409042B7D2601E002624E7304658
:1017C80022E7A94295D9A8F102081D4492E78C4561
:1017D800A0D9023C19449EE71046DFE70E46C9E748
:1017E8000238294443E700BFF0B58DB0274BDA69CA
:1017F80042F00202DA61DB6903F002030193019B04
:10180800234C244B2360002565602027A7604FF4F4
:10181800B463E36025616561204601F07FFB2046E3
:1018280001F054FB602305934FF434730693079536
:101838000895042609964FF480730A930B95204661
:1018480005A9324601F0F6F970230593204605A94B
:10185800082201F0EFF9029703950F4802A901F059
:10186800BDF91D202946012203F056F91D2003F079
:1018780047F9204601F044FB2046314601F0F2FAD0
:101888002046082101F0EEFA0DB0F0BD001002402C
:10189800D80B002000040040980B002070B58CB0D5
:1018A800224B9A6942F400629A619B6903F40063CF
:1018B8000193019B1E4C1F4B236000256560202669
:1018C800A6604FF4B463E36025616561204601F0CA
:1018D80025FB204601F0FAFA602305934FF4347390
:1018E800069307950895042309934FF480730A9388
:1018F8000B95204605A92A4601F09CF90296039506
:10190800204602A901F06AF9192001210A4603F0CC
:1019180003F9192003F0F4F8204601F0F1FA204603
:10192800294601F09FFA0CB070BD00BF00100240BC
:10193800980B0020002C014030B59FB00123149370
:101948004FF4803315930322169202251B951C939E
:101958004FF4E0131D9314A802F06CFC0F230F93AF
:101968001095002411944FF48063129313940FA8D8
:10197800294601F01DFC4FF4465300934FF4807341
:1019880009930C940D94684601F0E2FA01F0F6FB15
:10199800084BA3FB0030800903F09CF8042003F0F7
:1019A80089F84FF0FF302146224603F0B5F81FB002
:1019B80030BD00BFD34D6210F0B58BB05B4B5A6998
:1019C80042F400325A615A6902F400320192019AD3
:1019D8005A6942F480225A615A6902F480220292BA
:1019E800029A5A6942F400225A615A6902F40022A2
:1019F8000392039A5A6942F480025A615B6903F4BC
:101A080080030493049B4FF0904049F62061002224
:101A180002F06EFF464D284648F2FA31002202F0E5
:101A280067FF4FF4604305930024069407944148E8
:101A380005A902F06BFF49F6206305930126069677
:101A4800079408944FF0904005A902F05FFF48F210
:101A5800FA330593069607940894284605A902F0D8
:101A680055FF4FF48043059306940794284605A92B
:101A780002F04CFF4FF480730593022706970794F2
:101A88000896062309934FF0904005A902F03EFFFF
:101A98008023059306970794089609974FF090407E
:101AA80005A902F033FF059606970794089409974D
:101AB800284605A902F02AFF4023059306970794B4
:101AC800089609964FF0904005A902F01FFF0F23D2
:101AD80005930326069607944FF0904005A902F057
:101AE80015FF10230593069607944FF0904005A91B
:101AF80002F00CFF0423059306960794284605A9CF
:101B080002F004FF4FF40053059306960794284605
:101B180005A902F0FBFE4FF480530593069607943F
:101B2800284605A902F0F2FE0BB0F0BD00100240F5
:101B38000004004800080048F0B591B0264B5A69E7
:101B480042F000525A615B6903F000530093009B16
:101B5800224C234B23604FF4803363600025A5603B
:101B680001262661E56165622563E5602662656395
:101B780008236361A561A663204602F095F910A9C0
:101B880041F83C5D204603F093F8049605960795C6
:101B980002270A97069540230F930E950C950B95EF
:101BA8000D9509950895204604A901F06FFC0C23B2
:101BB80004930597204604A901F068FC2F203146BC
:101BC800324602F0A9FF2F2002F09AFF204601F0CA
:101BD8009DFE11B0F0BD00BF00100240E80A0020D1
:101BE80000010050F0B591B02D4B5A6942F0805277
:101BF8005A615B6903F080530093009B294C4FF0B6
:101C0800A04323604FF4803363600025A56001265C
:101C18002661E56165622563E560266265630823E0
:101C28006361A561A663204602F03EF910A941F858
:101C38003C5D204603F03CF804960596079504277A
:101C48000A97069540230F930E950C950B950D95C5
:101C580009950895204604A901F018FC022304936D
:101C68000593204604A901F011FC0323049305936E
:101C7800204604A901F00AFC04970597204604A908
:101C880001F004FC122031462A4602F045FF1220DA
:101C980002F036FF204601F039FE11B0F0BD00BF5A
:101CA80000100240940A002070B504460E46012830
:101CB80006D14FF090404FF48051012202F018FEF7
:101CC800022C06D14FF090404FF40061012202F03F
:101CD8000FFE34B94FF090404FF4C051012202F08A
:101CE80007FEF5B2284C20464FF4007105F00102BA
:101CF80002F0FEFD20464FF48071C5F3400202F069
:101D0800F7FD20468021C5F3800202F0F1FD204650
:101D18004021C5F3C00202F0EBFD20462021C5F3A7
:101D2800001202F0E5FD20461021C5F3401202F032
:101D3800DFFD20460821C5F3801202F0D9FD4FF0DF
:101D480090404FF40041F20F02F0D2FD4FF0904066
:101D58004FF40071012202F0CBFD20464FF4004100
:101D6800012202F0C5FD012002F0EAF920464FF4F5
:101D78000041002202F0BCFD4FF090404FF4C051EA
:101D8800002202F0B5FD70BD0004004870B504469D
:101D98000E46012806D14FF090404FF480510122A1
:101DA80002F0A6FD022C06D14FF090404FF40061DE
:101DB800012202F09DFD34B94FF090404FF4C0511C
:101DC800012202F095FDF5B2284C20464FF400712F
:101DD80005F0010202F08CFD20464FF48071C5F336
:101DE800400202F085FD20468021C5F3800202F002
:101DF8007FFD20464021C5F3C00202F079FD204650
:101E08002021C5F3001202F073FD20461021C5F30E
:101E1800401202F06DFD20460821C5F3801202F041
:101E280067FD4FF090404FF40041F20F02F060FD63
:101E38004FF090404FF40071002202F059FD204607
:101E48004FF40041012202F053FD012002F078F91D
:101E580020464FF40041002202F04AFD4FF0904026
:101E68004FF4C051002202F043FD70BD0004004849
:101E780008B560F047010020FFF788FF08BD00BFE4
:101E880008B541F04001C0B249B2FFF77FFF08BD75
:101E980070B50D461646FFF7EBFF00241BE02978C6
:101EA8003F2909D80120FFF7EBFF331901200B4A1E
:101EB800D156FFF7F9FE0AE03F390220C9B2FFF711
:101EC800DFFF33190220054AD156FFF7EDFE2B78C4
:101ED80001332B700134042CE1DD70BD0C000020AF
:101EE80008B520385A2800F2F781DFE810F0110110
:101EF800F501F501F501F501F501F501F501F5012A
:101F0800F501F501F501F501F501F501F501BA0154
:101F1800C001C601CC01D201D801DE01E401EA0109
:101F2800F001F501F501F501F501F501F501F501FE
:101F380017011D01230129012F0135013B01410131
:101F480047014D01530159015F0165016B017101A1
:101F580077017D0183018901900197019E01A50107
:101F6800AC01B301F501F501F501F501F501F50144
:101F78005B0062006900700077007E0085008C00BD
:101F880093009A00A100A800AF00B600BD00C400ED
:101F9800CB00D200D900E000E700EE00F500FC001D
:101FA80003010A010846114640F24512FFF770FF87
:101FB80008BD084611464FF4A572FFF769FF08BD32
:101FC8000846114640F24F12FFF762FF08BD084667
:101FD80011464FF4AA72FFF75BFF08BD0846114689
:101FE80040F25912FFF754FF08BD084611464FF456
:101FF800AF72FFF74DFF08BD0846114640F2631265
:10200800FFF746FF08BD084611464FF4B472FFF7C4
:102018003FFF08BD0846114640F26D12FFF738FF32
:1020280008BD084611464FF4B972FFF731FF08BDE5
:102038000846114640F27712FFF72AFF08BD084606
:1020480011464FF4BE72FFF723FF08BD084611463C
:1020580040F28112FFF71CFF08BD084611464FF4F5
:10206800C372FFF715FF08BD0846114640F28B12F0
:10207800FFF70EFF08BD084611464FF4C872FFF778
:1020880007FF08BD0846114640F29512FFF700FF0A
:1020980008BD084611464FF4CD72FFF7F9FE08BD9A
:1020A8000846114640F29F12FFF7F2FE08BD0846A7
:1020B80011464FF4D272FFF7EBFE08BD08461146F1
:1020C80040F2A912FFF7E4FE08BD084611464FF496
:1020D800D772FFF7DDFE08BD0846114640F2B3127D
:1020E800FFF7D6FE08BD084611464FF4DC72FFF72D
:1020F800CFFE08BD0846114640F2BD12FFF7C8FEE4
:1021080008BD084611464FF4E172FFF7C1FE08BD4D
:10211800084611460022FFF7BBFE08BD08461146D7
:10212800A522FFF7B5FE08BD08461146AA22FFF70B
:10213800AFFE08BD08461146AF22FFF7A9FE08BD4D
:1021480008461146B422FFF7A3FE08BD084611460B
:10215800B922FFF79DFE08BD08461146BE22FFF7CB
:1021680097FE08BD08461146C322FFF791FE08BD39
:1021780008461146C822FFF78BFE08BD08461146DF
:10218800CD22FFF785FE08BD08461146D222FFF78B
:102198007FFE08BD08461146D722FFF779FE08BD25
:1021A80008461146DC22FFF773FE08BD08461146B3
:1021B800E122FFF76DFE08BD08461146E622FFF74B
:1021C80067FE08BD08461146EB22FFF761FE08BD11
:1021D80008461146F022FFF75BFE08BD0846114687
:1021E800F522FFF755FE08BD08461146FA22FFF70B
:1021F8004FFE08BD08461146FF22FFF749FE08BDFD
:10220800084611464FF48272FFF742FE08BD0846A1
:10221800114640F20912FFF73BFE08BD0846114679
:102228004FF48772FFF734FE08BD0846114640F2A6
:102238001312FFF72DFE08BD084611464FF48C72A5
:10224800FFF726FE08BD0846114640F21D12FFF7AB
:102258001FFE08BD084611464FF49172FFF718FE9D
:1022680008BD084611465022FFF712FE08BD084671
:1022780011465522FFF70CFE08BD084611465A22A2
:10228800FFF706FE08BD084611465F22FFF700FE6D
:1022980008BD084611466422FFF7FAFD08BD084646
:1022A80011466922FFF7F4FD08BD084611466E2263
:1022B800FFF7EEFD08BD084611467322FFF7E8FD5B
:1022C80008BD084611467822FFF7E2FD08BD08461A
:1022D80011467D22FFF7DCFD08BD00BF30B583B095
:1022E80004460D468DF8072006E040B229460DF158
:1022F8000702FFF7F5FD013420780028F5D103B077
:1023080030BD00BF30B589B001AC184D0FCD0FC43A
:1023180095E8070003C4228001A800210A46FFF7B8
:10232800DDFF01A801210022FFF7D8FF01A8022143
:102338000022FFF7D3FF01A803210022FFF7CEFFF9
:1023480001A804210022FFF7C9FF01A805210022E6
:10235800FFF7C4FF01A806210022FFF7BFFF01A86D
:1023680007210022FFF7BAFF09B030BDF49E00082C
:1023780008B500203F21FFF709FD08BD38B5026800
:102388002C4B9A4255D12C484FF4804102F0B6FAB2
:1023980001284ED1294B1A6846F2A7139A4218DC35
:1023A800264A136801331360022002F07DFD00EB1A
:1023B80040008000224B83FB0023C017214C256876
:1023C800C0EBE320FEF714F82946FDF75DFF206017
:1023D80009E0022002F068FD00EB40008000FEF7F3
:1023E80007F8184B1860184B1C6820462146FDF763
:1023F8004BFF164B1968FEF7F7F918B10022134B7B
:102408001A600CE020464FF08141FEF745F810496C
:10241800FEF7F6F80D4C2168FDF736FF20600B4BF0
:102428001868FEF763FB02F0F5FC064B1B68094BC6
:102438001B6838BD0004004000040048740C0020EC
:1024480089B5F814140C002000000020180C002096
:1024580000007A440400002008B5024800F084FC1B
:1024680008BD00BFD80B002010B5044602681E4BFB
:102478009A4214D1186CFEF717FB17A3D3E900236F
:10248800FEF788FB0022194BFEF784FB14A3D3E95F
:102498000023FEF77FFBFDF7A1FE154B18602268AD
:1024A800144B9A4214D1186CFEF7FEFA0AA3D3E92A
:1024B8000023FEF76FFB00220C4BFEF76BFB08A313
:1024C800D3E90023FEF766FBFDF788FE0A4B186088
:1024D80010BD00BFAFF300806666666666660A4098
:1024E8003333333333331F40000400500000303F90
:1024F800700C0020000500503C0B0020AFF300805A
:1025080038B504460368B3F1A04F29D14FF0A04570
:10251800D5F88020304B1A60D5F884202F4B1A60EC
:10252800D5F88800FDF760FF2D4B1860D5F88C00B2
:10253800FEF7BAFA22A3D3E90023FEF72BFB002209
:10254800284BFEF727FB20A3D3E90023FEF722FB45
:10255800FDF744FE244B18604FF49B62234B5A63EB
:102568002268234B9A4228D14FF0A044D4F8800027
:10257800FEF79AFA12A3D3E90023FEF70BFB002219
:10258800184BFEF707FB12A3D3E90023FEF702FB63
:10259800FDF724FE174B1860D4F88000FEF784FA84
:1025A80007A3D3E90023FEF7F5FA00220D4BFEF747
:1025B800F1FAFDF713FE104B186038BDAFF3008039
:1025C8006666666666660A40AE47E17A14AE1A40E9
:1025D8006666666666662240D40B0020780C00208A
:1025E800080000200000303F940B0020002C014020
:1025F8000001005004000020900A0020AFF3008082
:1026080008B5024801F042FA08BD00BF400B00209F
:1026180008B5024801F03AFA08BD00BF1C0C0020BA
:1026280008B5034801F032FA024801F02FFA08BD54
:10263800940A0020E80A002008B501F08FFD08BDC3
:1026480000B583B00A4B9A6942F001029A619B690E
:1026580003F001030193019B032002F08FFA4FF06E
:10266800FF3000210A4602F057FA03B05DF804FB78
:102678000010024000B587B001F08CFDFFF75CF94F
:10268800FFF79AF9FFF70AF9FFF7AEF801F094FDA2
:10269800FFF7A8FAFFF750FA4FF090404FF4806127
:1026A800012202F025F9FFF763FEFFF72BFE1F4B0F
:1026B80001AC0FCB07C424F8023B1B0C237000228B
:1026C8008DF813208DF814208DF815208DF816201C
:1026D8008DF8172001A81146FFF700FE144B186863
:1026E800FEF704FA02460B4601A8124903F0C4FE9D
:1026F80001A802210022FFF7F1FD0F4B1A680F4CC9
:1027080001A8214603F0B8FE01A803210022FFF723
:10271800E5FD0B4B1A6801A8214603F0ADFE01A8A0
:1027280004210022FFF7DAFDD8E700BFE09E000889
:1027380008000020109F0008D40B0020189F0008F4
:10274800780C002030B4036A23F480130362036A10
:102758004468426D22F0807222F4E0420D6842EA39
:10276800052223F400138D6843EA05530F4DA84250
:102778000FD005F50065A8420BD005F54065A842C5
:1027880007D005F58065A84203D005F58065A84205
:1027980004D124F480244D6944EA852444604265C8
:1027A8004A68C265036230BC704700BF002C014014
:1027B80030B4036A23F480330362036A4468426DC9
:1027C80022F4803222F070020D682A4323F4003389
:1027D8008D6843EA05430F4DA8420FD005F5006503
:1027E800A8420BD005F54065A84207D005F58065DD
:1027F800A84203D005F58065A84204D124F48034AA
:102808004D6944EA0524446042654A68826503626A
:1028180030BC7047002C014010B401238B40046A7F
:1028280024EA03030362036A8A401A4302625DF8DA
:10283800044B704730B4036A23F480530362036A7D
:102848004468C26922F0807222F4E6420D6842EAC6
:10285800052223F400538D6843EA05330F4DA8423F
:102868000FD005F50065A8420BD005F54065A842D4
:1028780007D005F58065A84203D005F58065A84214
:1028880004D124F480444D6944EA85144460C2614B
:102898004A680264036230BC704700BF002C0140E4
:1028A80030B4036A23F480730362036A4468C2691C
:1028B80022F4803222F073020D682A4323F4007355
:1028C8008D6843EA0523184DA84203D005F5006535
:1028D800A84206D123F40063CD6843EA052323F414
:1028E8008063114DA8420FD005F50065A8420BD0B2
:1028F80005F54065A84207D005F58065A84203D0D4
:1029080005F58065A84207D124F440544D6944EA8E
:1029180005148D6944EA05144460C2614A68C263BB
:10292800036230BC704700BF002C014030B4036A1A
:1029380023F010030362036A4468826922F08072FC
:1029480022F4E6420D6842EA052223F020038D684E
:1029580043EA0513174DA84203D005F50065A842C0
:1029680006D123F08003CD6843EA051323F0400322
:10297800104DA8420FD005F50065A8420BD005F50B
:102988004065A84207D005F58065A84203D005F543
:102998008065A84207D124F440644D6944EA85045F
:1029A8008D6944EA8504446082614A6882630362EF
:1029B80030BC7047002C014030B4036A23F0010397
:1029C8000362036A4468826922F4803222F0730247
:1029D8000D682A4323F002038D682B431C4DA8423F
:1029E8000FD005F50065A8420BD005F54065A84253
:1029F80007D005F58065A84203D005F58065A84293
:102A080005D123F00803CD682B4323F00403104DB0
:102A1800A8420FD005F50065A8420BD005F5406522
:102A2800A84207D005F58065A84203D005F5806562
:102A3800A84205D124F440744D692C438D692C4378
:102A4800446082614A684263036230BC704700BFD9
:102A5800002C014003682A4A90420ED0B0F1804F02
:102A68000BD0A2F59432904207D002F580629042D2
:102A780003D002F59632904203D123F070034A68DE
:102A880013431F4A90421AD0B0F1804F17D0A2F5D5
:102A98009432904213D002F5806290420FD002F532
:102AA800963290420BD002F54062904207D002F570
:102AB8008062904203D002F58062904203D123F4F1
:102AC8004073CA68134303608B68C3620B688362F0
:102AD8000B4B98420FD003F5006398420BD003F5D7
:102AE8004063984207D003F58063984203D003F50A
:102AF8008063984201D10B690363012343617047E6
:102B0800002C0140184B5B6803F00C02042A02D029
:102B1800082A02D026E01548704703F470114FF4D4
:102B2800701292FAA2F2B2FA82F221FA02F2104973
:102B38008A5C0D49C96A01F00F010F2090FAA0F0D4
:102B4800B0FA80F0C1400B48405C13F4803F05D0D8
:102B5800064BB3FBF0F002FB00F07047064800FBA1
:102B680002F0704705487047001002400048E8012D
:102B78003C9F00081C9F000800093D0000127A00D5
:102B8800124B1A6842F001021A605968104A0A404A
:102B98005A601A6822F0847222F480321A601A6825
:102BA80022F480221A605A6822F4FE025A60DA6A15
:102BB80022F00F02DA62196B064A0A401A630022F1
:102BC8009A604FF00062044B9A6070470010024010
:102BD8000CC07FF8CCFC00FF00ED00E090F8383026
:102BE800012B21D030B4012380F8383004686368A1
:102BF800A2680F4DAC4203D005F50065AC4203D185
:102C080023F470034D682B4323F070030D682B43A6
:102C180022F0800289680A43636003689A6000238F
:102C280080F83830184601E00220704730BC704701
:102C3800002C014038B590F83830012B00F0918015
:102C48000D460446012380F83830022380F83930D5
:102C5800082A32D003D84AB1042A1AD07AE0102AB6
:102C680052D0142A63D00C2A74D139E00068FFF7D7
:102C7800A3FE2268936943F008039361226893696D
:102C880023F004039361226891692B690B439361D4
:102C980060E00068FFF74AFE2268936943F4006326
:102CA80093612268936923F480639361226893692E
:102CB800296943EA012393614CE00068FFF7F0FDBE
:102CC8002268D36943F00803D3612268D36923F0EB
:102CD8000403D3612268D1692B690B43D36139E0BE
:102CE8000068FFF7A7FD2268D36943F40063D36146
:102CF8002268D36923F48063D3612268D369296980
:102D080043EA0123D36125E00068FFF751FD2268FB
:102D1800536D43F0080353652268536D23F0040391
:102D280053652268516D2B690B43536512E00068A7
:102D3800FFF708FD2268536D43F40063536522686A
:102D4800536D23F4806353652268536D296943EA00
:102D580001235365012384F83930002084F83800B2
:102D680038BD022038BD00BF10B5044603681A6993
:102D780012F0020F0CD0DA6812F0020F08D06FF0D0
:102D880002021A610123037603689B690023037614
:102D980023681A6912F0040F0CD0DA6812F0040FD5
:102DA80008D06FF004021A610223237623689B6916
:102DB8000023237623681A6912F0080F0CD0DA680A
:102DC80012F0080F08D06FF008021A610423237666
:102DD8002368DB690023237623681A6912F0100F31
:102DE8000CD0DA6812F0100F08D06FF010021A61D8
:102DF800082323762368DB690023237623681A696E
:102E080012F0010F09D0DA6812F0010F05D06FF047
:102E180001021A612046FFF7B1FA23681A6912F015
:102E2800800F06D0DA6812F0800F02D06FF08002AF
:102E38001A6123681A6912F0400F06D0DA6812F096
:102E4800400F02D06FF040021A6123681A6912F02D
:102E5800200F06D0DA6812F0200F02D06FF020029F
:102E68001A6110BD10B5044600680122FFF7D4FCB2
:102E78002368154A934211D002F5006293420FD09D
:102E880002F5406293420DD002F5806293420BD066
:102E980002F58062934209D1012208E0012206E08E
:102EA800012204E0012202E0012200E000221AB11E
:102EB8005A6C42F400425A642268136843F00103D2
:102EC8001360002010BD00BF002C0140B0B110B548
:102ED800044690F8393013F0FF0F02D1002380F830
:102EE8003830022384F83930214651F8040BFFF7B3
:102EF800B1FD012384F83930002010BD012070474E
:102F0800022380F839300268136843F00103136024
:102F1800012380F839300020704700BFB0B110B5E8
:102F2800044690F8393013F0FF0F02D1002380F8DF
:102F38003830022384F83930214651F8040BFFF762
:102F480089FD012384F83930002010BD0120704725
:102F5800F0B583B00446036813F4803F70D0844B07
:102F6800DA6942F08052DA61DB6903F08053019339
:102F7800019B804A136843F48073136001F0DAF808
:102F8800054605E001F0D6F8401B642800F2E98008
:102F9800784B1B6813F4807FF4D0754B1A6A63680A
:102FA800534013F4407F4BD07148016A21F44076B6
:102FB8004FF4803393FAA3F2B2FA82F26E4D0127EE
:102FC80045F8227093FAA3F3B3FA83F3002245F885
:102FD8002320066211F0020F2BD001F0ABF8054652
:102FE80007E001F0A7F8401B41F28833984200F24D
:102FF800BA80022393FAA3F293FAA3F3B3FA83F302
:1030080043F040035B09022B02D1594B1A6A04E0D2
:10301800022393FAA3F3564B5A6A022393FAA3F3B3
:10302800B3FA83F303F01F0322FA03F313F0010F3B
:10303800D7D04F490B6A23F44072636813430B627D
:10304800236813F0010F06D049490B6B23F00302E4
:10305800A36813430B63236813F0020F06D0444997
:103068000B6B23F44032E36813430B63236813F0BC
:10307800040F06D03E490B6B23F440222369134307
:103088000B63236813F0200F06D039490B6B23F02C
:103098001002E36913430B63236813F4003F06D05F
:1030A80033494B6823F48002A36B13434B602368B6
:1030B80013F0400F06D02E490B6B23F02002236A31
:1030C80013430B63236813F0080F06D028490B6BD2
:1030D80023F44012636913430B63236813F0100F42
:1030E80006D023490B6B23F44002A36913430B63F7
:1030F800236813F4007F06D01D494B6823F40002AF
:10310800E36A13434B60236813F0800F06D0184915
:10311800CB6A23F4F872636A1343CB62236813F40F
:10312800807F06D01249CB6A23F47852A36A1343EE
:10313800CB62236813F4805F06D00D490B6B23F430
:103148008072236B13430B63236813F4005F0CD066
:1031580007490B6B23F40072636B13430B63002066
:1031680004E0032002E0032000E0002003B0F0BDEB
:1031780000100240007000400004424208B5FFF70A
:10318800C1FC084B5B6803F0F003F02292FAA2F24C
:10319800B2FA82F2D340044AD35CD840034B186099
:1031A80008BD00BF001002402C9F0008F801002055
:1031B80070B504460D46B34B1B6803F007038B42FA
:1031C80080F09780AF4A136823F007030B4313601E
:1031D800136803F007038B4240F03781036813F04C
:1031E800020F06D0A8494B6823F0F0028368134306
:1031F8004B60236813F0010F00F00B816268012A0D
:1032080013D14FF4003393FAA3F39F4B19684FF48B
:10321800003393FAA3F3B3FA83F303F01F0321FAFD
:1032280003F313F0010F28D111E1022A13D14FF053
:10323800007393FAA3F3944B19684FF0007393FA51
:10324800A3F3B3FA83F303F01F0321FA03F313F094
:10325800010F12D1FDE0022393FAA3F38A4B1968F8
:10326800022393FAA3F3B3FA83F303F01F0321FABB
:1032780003F313F0010F00F0EE8083494B6823F04D
:10328800030313434B6000F055FF05466368012BA9
:103298000FD107E000F04EFF401B41F288339842FF
:1032A80000F2DB80784B5B6803F00C03042BF1D150
:1032B800AFE0022B17D107E000F03CFF401B41F2C2
:1032C8008833984200F2CB806F4B5B6803F00C03A5
:1032D800082BF1D19DE000F02DFF401B41F288330F
:1032E800984200F2BE80684B5B6813F00C0FF2D175
:1032F8008FE0036813F0020F06D063494B6823F090
:10330800F002836813434B60236813F0010F75D0F4
:103318006268012A13D14FF4003393FAA3F35A4B8E
:1033280019684FF4003393FAA3F3B3FA83F303F065
:103338001F0321FA03F313F0010F27D193E0022AA8
:1033480013D14FF0007393FAA3F34F4B19684FF062
:10335800007393FAA3F3B3FA83F303F01F0321FA7C
:1033680003F313F0010F11D17FE0022393FAA3F3C3
:10337800454B1968022393FAA3F3B3FA83F303F0D6
:103388001F0321FA03F313F0010F70D03E494B6875
:1033980023F0030313434B6000F0CCFE064663683A
:1033A800012B0ED106E000F0C5FE801B41F28833E8
:1033B80098425ED8344B5B6803F00C03042BF2D1BF
:1033C8001CE0022B15D106E000F0B4FE801B41F290
:1033D800883398424FD82C4B5B6803F00C03082BBA
:1033E800F2D10BE000F0A6FE801B41F28833984230
:1033F80043D8254B5B6813F00C0FF3D1214A1368AF
:1034080023F007032B431360136803F00703AB4251
:1034180035D1236813F0040F06D01B494B6823F4F9
:10342800E062E36813434B60236813F0080F07D08A
:10343800154A536823F46053216943EAC103536072
:10344800002000F093FE002070BD012070BD012017
:1034580070BD012070BD012070BD032070BD032028
:1034680070BD032070BD012070BD012070BD01201A
:1034780070BD032070BD032070BD032070BD012006
:1034880070BD00BF0020024000100240F0B597B0A8
:103498000023009390F84030012B00F0258201238F
:1034A80080F84030036913B18B69012B35D14B6823
:1034B800012B2CD18B6A012B18D00A6812020468E0
:1034C800A34DAC4203D005F58075AC420AD1082B58
:1034D80007D0142B03D01C2B04D1102302E01C238B
:1034E80000E034231A43CB6A1A4301E00A68120247
:1034F8000468E36C23F0FB4323F4EF0323F4BF4396
:1035080023F07F031343E364C26400234CE0436C5D
:1035180043F020034364012346E0026D12BB0365B8
:103528000023C3648B6A012B19D08A69013A0468A5
:10353800874DAC4203D005F58075AC420AD1082B03
:1035480007D0142B03D01C2B04D1102302E01C231A
:1035580000E034231343CA6A1343C36402E08B694F
:10356800013BC3644A68062303FB02F302331F24AA
:103578009C40C26C22EA04040A689A4044EA0203A6
:10358800C364026D013A02656AB90468E26C22F00C
:10359800FB4222F4EF0222F4BF4222F07F021343DF
:1035A800E364002300E000230268946814F0080F25
:1035B8001BD10C6A54B9D46824F440164F6ACC69FC
:1035C800250545EA47543443D4600EE0D46824F412
:1035D80040144D6A44EA4554D460CA69012A04D1AA
:1035E800436C43F02003436401230268946814F099
:1035F8000C0F40F09E808C6A012C07D1D46824F00F
:1036080000740D6A44EA4564D4600BE0D46824F081
:103618000074D4600A6A012A04D1436C43F0200381
:10362800436401230A68092A0DD90768BE6902EBB9
:1036380042021E3A0724944026EA04058C68944006
:103648002C43BC610BE007687E6902EB4202072449
:10365800944026EA04058C6894402C437C614C69AC
:103668000568EA68C2F3C102520094400A69013A47
:10367800032A2FD8DFE802F0020D18232A6E354EF0
:1036880016400A6844EA8262324342F000422A66DF
:103698004FE06A6E2F4E16400A6844EA826232434F
:1036A80042F000426A6644E0AA6E2A4E16400A6852
:1036B80044EA8262324342F00042AA6639E0EA6E86
:1036C800244E16400A6844EA8262324342F00042BD
:1036D800EA662EE02A6E02F0F8420C68B2EB846FBC
:1036E80003D12A6E22F000422A660468626E02F054
:1036F800F8420D68B2EB856F03D1626E22F000428A
:1037080062660468A26E02F0F8420D68B2EB856F3B
:1037180003D1A26E22F00042A2660468E26E02F0B3
:10372800F8420D68B2EB856F03D1E26E22F00042D9
:10373800E2660468A26802F00302012A05D1226841
:1037480012F0010F08D1002507E0002505E000BFB1
:103758000004005000F0FF830125002D40F0BF80D9
:10376800CA68012A09D0D4F8B0600F680122BA40AB
:1037780026EA0202C4F8B0202BE0D4F8B0600F6843
:103788000122BA403243C4F8B0200A68092A10D985
:10379800D0F800E0DEF8187002EB42021B3A07246A
:1037A800944027EA04068C6894403443CEF81840C5
:1037B8000FE0D0F800E0DEF81470013202EB4202AC
:1037C8000724944027EA04068C6894403443CEF8D2
:1037D80014400268B2F1A04F04D0454CA24203D174
:1037E800444E02E0434E00E0434E0C68102C03D1D7
:1037F800B76817F4000F0BD0112C03D1B76817F076
:10380800807F05D0122C6AD1B46814F4800F66D179
:10381800B2F1A04F03D102F58072019214E0344C4A
:10382800A24203D14FF0A04201920DE0334CA242D4
:1038380002D1334A019207E0314CA24202D12F4A09
:10384800019201E0002201920468A26802F00302DA
:10385800012A04D1226812F0010F00D00125002DA1
:1038680038D1019F57B1BA6802F00302012A04D186
:103878003A6812F0010F00D001255DBB0A68102AD2
:1038880017D1B4F1A04F14D1B26842F40002B2606B
:103898001C4A12681C49B2FBF1F10A2202FB01F230
:1038A800009202E0009A013A0092009A002AF9D1A7
:1038B80015E0112A07D1B4F1A04F04D1B26842F043
:1038C8008072B2600BE0122A09D1B26842F4800219
:1038D800B26004E0436C43F02003436401230022F8
:1038E80080F84020184600E0022017B0F0BD00BF65
:1038F8000001005000030050000700500004005071
:1039080000050050F801002040420F0003689B6842
:1039180013F0080F40F0AB8090F84030012B00F016
:10392800AB8010B50446012380F8403001F07EF9E1
:103938000346002840F09780626C22F4405222F03F
:10394800010242F4805262642268B2F1A04F02D0B0
:103958004A498A4205D14A49896811F01F0F0BD09C
:1039680004E04849896811F01F0F05D0B2F1A04F53
:1039780002D045498A4204D1616C21F48011616406
:1039880003E0616C41F480116164616C11F4807F23
:1039980001D10021A164002184F840106021116048
:1039A8002268D16811F4001F03D0516841F4806186
:1039B80051606269082A0AD121684A6822F0200207
:1039C8004A6021684A6842F040024A6004E021687F
:1039D8004A6842F060024A602268D16811F0007FAC
:1039E80048D1B2F1A04F02D024498A4205D12449D6
:1039F800896811F01F0F31D004E02249896811F05D
:103A08001F0F2BD0B2F1A04F02D01C498A4206D119
:103A18001B49896801F01F01062906D11EE01949D2
:103A2800896801F01F01062918D0B2F1A04F02D011
:103A380012498A4206D11249896801F01F010729F3
:103A480006D10BE00F49896801F01F01072905D04D
:103A5800B2F1A04F02D00C498A420BD1916841F0D3
:103A68000801916006E0002284F8402002E0022369
:103A780018467047184610BD0220704700010050D4
:103A880000030050000700500004005010B5044621
:103A980003681A6812F0040F03D05A6812F0040F72
:103AA80009D11A6812F0080F00F087805A6812F0DE
:103AB800080F00F08280626C12F0100F03D1626C64
:103AC80042F400726264B3F1A04F02D09A4A934262
:103AD80005D19A4A926812F01F0F31D004E0984A33
:103AE800926812F01F0F2BD0B3F1A04F02D0924A68
:103AF800934206D1914A926802F01F02052A06D124
:103B08001EE08F4A926802F01F02052A18D0B3F10E
:103B1800A04F02D0884A934206D1884A926802F0A0
:103B28001F02092A06D10BE0854A926802F01F029B
:103B3800092A05D0B3F1A04F02D0824A934201D19D
:103B4800D9680CE0B3F1A04F05D07B4A934204D169
:103B58004FF0A04202E01A4600E07A4AD168DA68DB
:103B680012F4406F23D111F4005F20D11A6812F0CB
:103B7800080F1CD09A6812F0040F10D15A6822F06E
:103B88000C025A60636C23F480736364636C13F4EF
:103B9800805F0CD1636C43F00103636407E0636CDE
:103BA80043F010036364A36C43F00103A36420464D
:103BB800FEF75AFC23680C221A6023681A6812F070
:103BC800200F03D05A6812F0200F09D11A6812F09A
:103BD800400F00F0E1805A6812F0400F00F0DC80DE
:103BE800626C42F400526264B3F1A04F02D0524AB0
:103BF800934205D1514A926812F01F0F31D004E068
:103C08004F4A926812F01F0F2BD0B3F1A04F02D089
:103C1800494A934206D1494A926802F01F02052A8E
:103C280006D11EE0464A926802F01F02052A18D003
:103C3800B3F1A04F02D0404A934206D13F4A92685E
:103C480002F01F02092A06D10BE03D4A926802F0F1
:103C58001F02092A05D0B3F1A04F02D0394A934276
:103C680001D1D9680CE0B3F1A04F05D0324A934294
:103C780004D14FF0A04202E01A4600E0314AD16870
:103C8800DA6C12F0C00F09D011F0007F7ED1DA682B
:103C980012F4406F7AD111F4005F77D11A6812F0EC
:103CA800400F73D0B3F1A04F02D0234A934205D1FD
:103CB800224A926812F01F0F31D004E0204A92681D
:103CC80012F01F0F2BD0B3F1A04F02D01A4A934223
:103CD80006D11A4A926802F01F02062A06D11EE08F
:103CE800174A926802F01F02062A18D0B3F1A04FB3
:103CF80002D0114A934206D1104A926802F01F027C
:103D0800072A06D10BE00E4A926802F01F02072A22
:103D180005D0B3F1A04F02D00A4A934201D1DA6824
:103D280014E0B3F1A04F05D0034A93420CD14FF0F1
:103D3800A0420AE01A4608E00001005000030050C3
:103D48000007005000040050534AD26812F4001FC4
:103D58001CD19A6812F0080F10D15A6822F060023C
:103D68005A60636C23F480536364636C13F4807F3C
:103D78000CD1636C43F00103636407E0636C43F0A8
:103D880010036364A36C43F00103A3642046FEF7A9
:103D9800B7FB236860221A6023681A6812F0800F44
:103DA8000AD05B6813F0800F06D0636C43F480334D
:103DB8006364236880221A6023681A6812F4807F7B
:103DC8000BD05B6813F4807F07D0636C43F4003337
:103DD800636423684FF480721A6023681A6812F4C7
:103DE800007F0BD05B6813F4007F07D0636C43F44B
:103DF8008023636423684FF400721A6023681A688A
:103E080012F0100F33D05A6812F0100F2FD0A26B97
:103E1800012A1BD0B3F1A04F05D0204A934204D108
:103E280002F5007202E01E4A00E01E4A916811F095
:103E38001F0F05D1DB6813F0010F09D100230AE039
:103E4800936813F4404F05D1002304E0012302E0F6
:103E5800012300E001233BB1636C43F48063636496
:103E6800A36C43F00203A364236810221A6023683A
:103E78001A6812F4806F0ED05A6812F4806F0AD054
:103E8800626C42F480426264A26C42F00802A2644E
:103E98004FF480621A6010BD000400500001005009
:103EA800000300500007005070B596B0002300933F
:103EB800002800F02C810446436C13F0100F4ED1FB
:103EC800436C002B33D183640365C36480F84030AE
:103ED80003689B6813F0805F2BD100F061FE636C70
:103EE80013F0100F26D128BB636C23F4885323F0FA
:103EF800020343F0020363642268936823F040538B
:103F080093602268936843F080539360814B1B68E9
:103F1800814AB3FBF2F20A2303FB02F3009302E0A7
:103F2800009B013B0093009B002BF9D102E000208D
:103F380000E0002023689A6812F0805F03D09B6835
:103F480013F0005F0CD0636C23F0120343F01003EE
:103F58006364A36C43F00103A364012000E0002024
:103F6800636C13F0100F40F0CA80002840F0C7803F
:103F780023689A6812F0040140F0C180626C22F450
:103F8800817242F002026264B3F1A04F04D0634A26
:103F9800934203D1624D02E0614D00E0614DB3F1FF
:103FA800A04F03D103F58073019314E05B4A934259
:103FB80003D14FF0A04301930DE05B4A934202D135
:103FC8005A4B019307E0594A934202D1564B019349
:103FD80001E0002301932268936803F00303012B97
:103FE80005D1136813F0010F03D1002302E0002369
:103FF80000E0012393B9019E56B1B26802F00302B2
:10400800012A04D1326812F0010F00D001232BB924
:10401800AB6823F4403263681343AB60E5696A0315
:10402800A36B012B01D04FF480510A43E16811437F
:10403800A2680A43636A012B11D135B9A36A013B0F
:1040480042EA434343F4803209E0636C23F02203DD
:1040580043F020036364A36C43F00103A364E36AA1
:10406800012B1BD02168304DA94203D005F580757E
:10407800A94210D1B3F5307F0BD0B3F5807F05D0BE
:10408800B3F5E07F07D14FF4807304E04FF4307349
:1040980001E04FF4E073216B0B431A4323689968DE
:1040A80011F00C0F0BD1D96821F4804121F00201E5
:1040B800D960A169636B5B0043EA81331A432168C5
:1040C800CD681B4B2B401343CB602369012B08D1D0
:1040D80021680B6B23F00F02236A013B13430B6328
:1040E80004E02268136B23F00F0313630023A36417
:1040F800636C23F0030343F00103636408E0636C1B
:1041080023F0120343F010036364012000E0012050
:1041180016B070BDF801002040420F0000010050A9
:104128000003005000070050000400500005005034
:1041380007C0F0FF014B1868704700BFB80C00209B
:1041480010B582B00190FFF7F5FF0446FFF7F2FFC4
:10415800001B019B9842F9D302B010BD024A1368B4
:1041680001331360704700BFB80C002010B5044637
:10417800FFF704F8064BA3FB0030800900F0AAFC07
:104188004FF0FF302146002200F0C6FC002010BD91
:10419800D34D621008B5074A136843F01003136043
:1041A800032000F0EBFC0020FFF7E0FFFEF748FAE1
:1041B800002008BD0020024030B589B01A4B9A692A
:1041C80042F400329A619B6903F400330093009B28
:1041D800164C174B236000256560A5604FF6FF73EA
:1041E800E360256165612046FEF798FE2046FEF7EC
:1041F8006DFE6023019347F6FF73029303950495C0
:10420800042305934FF4807306930795204601A96C
:104218002A46FEF70FFD2046FEF772FE2046294685
:10422800FEF720FE09B030BD001002407C0C0020D3
:104238000044014030B583B00446036813F0010F11
:1042480000F0C580C34B5B6803F00C03042B0AD055
:10425800C04B5B6803F00C03082B1DD1BD4B5B689A
:1042680013F4803F18D04FF4003393FAA3F3B94BFB
:104278001A684FF4003393FAA3F3B3FA83F303F005
:104288001F0322FA03F313F0010F00F0A080636804
:10429800002B40F09C8003E3AE4B1A6822F4803276
:1042A8001A601A6822F480221A60FFF743FF054655
:1042B80005E0FFF73FFF401B642800F2F3824FF44C
:1042C800003393FAA3F3A34B1A684FF4003393FA1D
:1042D800A3F3B3FA83F303F01F0322FA03F313F0F3
:1042E800010FE6D16368B3F5803F05D1994A136899
:1042F80043F48033136026E063B903F1804303F588
:1043080004331A6822F480321A601A6822F4802270
:104318001A6018E0B3F5A02F0CD103F18043A3F580
:104328003C331A6842F480221A601A6842F48032D8
:104338001A6008E0874B1A6822F480321A601A68FB
:1043480022F480221A608349CB6A23F00F02A36803
:104358001343CB626368EBB1FFF7ECFE054605E05B
:10436800FFF7E8FE401B642800F29E824FF40033FA
:1043780093FAA3F3774B1A684FF4003393FAA3F335
:10438800B3FA83F303F01F0322FA03F313F0010FC8
:10439800E6D01CE0FFF7CEFE054605E0FFF7CAFEB3
:1043A800401B642800F282824FF4003393FAA3F38F
:1043B800684B1A684FF4003393FAA3F3B3FA83F304
:1043C80003F01F0322FA03F313F0010FE6D1236869
:1043D80013F0020F00F090805E4B5B6813F00C0F37
:1043E8000AD05C4B5B6803F00C03082B27D1594BB0
:1043F8005B6813F4803F22D1022393FAA3F3554B51
:104408001A68022393FAA3F3B3FA83F303F01F03A2
:1044180022FA03F313F0010F03D02369012B40F0B4
:1044280047824C48036823F0F8016369F82292FA3E
:10443800A2F2B2FA82F293400B4303605CE0236974
:104448009BB3012292FAA2F3B3FA83F39B0003F120
:10445800844303F584031A60FFF76CFE054605E004
:10446800FFF768FE401B642800F22482022393FAB7
:10447800A3F3384B1A68022393FAA3F3B3FA83F32E
:1044880003F01F0322FA03F313F0010FE8D03148B9
:10449800036823F0F8016369F82292FAA2F2B2FAEB
:1044A80082F293400B43036026E0012393FAA3F3BF
:1044B800B3FA83F39B0003F1844303F584030022DA
:1044C8001A60FFF737FE054605E0FFF733FE401B8D
:1044D800642800F2F181022393FAA3F31D4B1A68B2
:1044E800022393FAA3F3B3FA83F303F01F0322FA28
:1044F80003F313F0010FE8D1236813F0080F54D029
:10450800A3695BB3012292FAA2F3B3FA83F31249C7
:1045180041F82320FFF70EFE054605E0FFF70AFEE7
:10452800401B642800F2CA81022393FAA3F293FA8B
:10453800A3F293FAA3F2074A526A93FAA3F3B3FADF
:1045480083F303F01F0322FA03F313F0010FE5D0FE
:104558002BE000BF0010024080044242012393FA7E
:10456800A3F3B3FA83F30021BD4A42F82310FFF7FF
:10457800E1FD054605E0FFF7DDFD401B642800F27C
:104588009F81022393FAA3F293FAA3F293FAA3F278
:10459800B44A526A93FAA3F3B3FA83F303F01F03FE
:1045A80022FA03F313F0010FE5D1236813F0040F87
:1045B80000F0DA80AB4BDA6942F08052DA61DB69ED
:1045C80003F080530193019BA74A136843F4807357
:1045D8001360FFF7AFFD054605E0FFF7ABFD401B95
:1045E800642800F26F81A04B1B6813F4807FF4D01D
:1045F8009C4B1A6A22F001021A621A6A22F004021B
:104608001A62FFF797FD054607E0FFF793FD401B89
:1046180041F28833984200F25781022393FAA3F2B9
:1046280093FAA3F3B3FA83F343F040035B09022B35
:1046380002D18C4B1A6A04E0022393FAA3F3894B44
:104648005A6A022393FAA3F3B3FA83F303F01F031E
:1046580022FA03F313F0010FD7D1E368012B05D138
:10466800804A136A43F00103136222E063B903F13D
:10467800804303F504331A6A22F001021A621A6AA7
:1046880022F004021A6214E0052B09D1754B1A6A4C
:1046980042F004021A621A6A42F001021A6208E041
:1046A800704B1A6A22F001021A621A6A22F0040296
:1046B8001A62E36863B3FFF73DFD054607E0FFF7BD
:1046C80039FD401B41F28833984200F2FF800223F3
:1046D80093FAA3F293FAA3F3B3FA83F343F04003F4
:1046E8005B09022B02D15F4B1A6A04E0022393FA9A
:1046F800A3F35C4B5A6A022393FAA3F3B3FA83F346
:1047080003F01F0322FA03F313F0010FD7D02BE0B5
:10471800FFF710FD054607E0FFF70CFD401B41F2CF
:104728008833984200F2D480022393FAA3F293FAD2
:10473800A3F3B3FA83F343F040035B09022B02D1DE
:10474800484B1A6A04E0022393FAA3F3454B5A6ACA
:10475800022393FAA3F3B3FA83F303F01F0322FAB5
:1047680003F313F0010FD7D1E369002B00F0B280F7
:104778003C4A526802F00C02082A00F0AD80022B75
:104788005DD14FF0807393FAA3F3B3FA83F39B00E0
:1047980003F1844303F5840300221A60FFF7CAFC7F
:1047A800054605E0FFF7C6FC401B642800F296802A
:1047B8004FF0007393FAA3F32A4B1A684FF0007373
:1047C80093FAA3F3B3FA83F303F01F0322FA03F374
:1047D80013F0010FE6D12348436823F47411636A88
:1047E800226A13430B4343604FF0807393FAA3F399
:1047F800B3FA83F39B0003F1844303F58403012296
:104808001A60FFF797FC044604E0FFF793FC001BCF
:10481800642865D84FF0007393FAA3F3114B1A6814
:104828004FF0007393FAA3F3B3FA83F303F01F0373
:1048380022FA03F313F0010FE7D0002053E04FF002
:10484800807393FAA3F3B3FA83F39B0003F18443D1
:1048580003F5840300221A60FFF76CFC04460AE0A3
:10486800800442420010024000700040FFF762FCE2
:10487800001B642836D84FF0007393FAA3F31B4B40
:104888001A684FF0007393FAA3F3B3FA83F303F0B3
:104898001F0322FA03F313F0010FE7D1002022E0EF
:1048A800012020E003201EE003201CE003201AE082
:1048B800012018E0032016E0032014E0032012E092
:1048C800032010E003200EE003200CE003200AE0A0
:1048D800032008E0002006E0012004E0032002E0B5
:1048E800032000E0032003B030BD00BF00100240E9
:1048F8000AB1816170478162704700BF03690B424A
:1049080001D0012070470020704700BFF0B583B088
:104918000023BFE001249C40224000F0BA804C688C
:10492800022C01D0122C14D14FEAD30E0EF1080E2E
:1049380050F82E6003F0070C4FEA8C0C0F2404FA91
:104948000CF426EA04050C6904FA0CF42C4340F82C
:104958002E4005684FEA430E032404FA0EF4E4439C
:1049680004EA05064D6805F0030505FA0EF535431A
:1049780005604D686E1E012E03D9112D01D0122D30
:1049880013D1856804EA0506CD6805FA0EF53543A6
:10499800856046680125BD4026EA050C4E68C6F3C9
:1049A8000016BE4046EA0C054560C56825408C687F
:1049B80004FA0EF42C43C4604C6814F0805F68D08D
:1049C800384CA56945F00105A561A46904F0010406
:1049D8000194019C9F08BD1C334C54F8256003F0DA
:1049E800030E4FEA8E0E0F2404FA0EF426EA04058D
:1049F800B0F1904F18D02D4CA04213D004F580642C
:104A0800A0420DD004F58064A04207D004F580646C
:104A1800A04201D1042408E0052406E0032404E0B0
:104A2800022402E0012400E0002404FA0EF42C43DE
:104A380002371D4D45F827401D4C2568D44304EA2C
:104A480005064F6817F4803F01D042EA0506184D65
:104A58002E606D6804EA05064F6817F4003F01D020
:104A680042EA0506124D6E60AD6804EA05064F6815
:104A780017F4801F01D042EA05060D4DAE60ED68BF
:104A88002C404E6816F4001F01D042EA0504084A7B
:104A9800D46001330A681F4632FA03F47FF43AAF50
:104AA80003B0F0BD001002400000014000040048BF
:104AB80000040140042805D1054A136843F00403A3
:104AC80013607047024A136823F0040313607047A9
:104AD80010E000E00138B0F1807F0AD2064B586040
:104AE800F021064A82F823100020986007221A60F5
:104AF80070470120704700BF10E000E000ED00E0C3
:104B0800410900F01F0001238340024A42F8213086
:104B1800704700BF00E100E030B4164BDC68C4F316
:104B28000224C4F10705042D28BF0425231D062BE4
:104B380001D9033C00E00024012303FA05F5013DF7
:104B48002940A140A340013B1A400A43002806DA45
:104B580000F00F001201D2B2074B1A5407E01201FD
:104B6800D2B200F1604000F5614080F8002330BC0B
:104B7800704700BF00ED00E014ED00E000F0070012
:104B8800064AD36823F4E0631B041B0C43EA0020A5
:104B980040F0BF6040F40030D060704700ED00E0A6
:104BA80038B50268936803F00303012B05D1136835
:104BB80013F0010F03D1002302E0002300E00123DA
:104BC800002B30D0936803F00D03012B0BD1044662
:104BD800936843F002039360036803221A60FFF7A7
:104BE800A9FA054618E0436C43F010034364836C4C
:104BF80043F001038364012038BDFFF79BFA401B93
:104C0800022809D9636C43F010036364A36C43F072
:104C18000103A364012038BD23689B6813F0010FCA
:104C2800EBD1002038BD002038BD00BF38B5026880
:104C3800936803F00303012B05D1136813F0010FE8
:104C480003D1002302E0002300E0012363BB916845
:104C5800164B194209D0436C43F010034364836C2C
:104C680043F001038364012038BD0446936843F090
:104C780001039360FFF75EFA05460EE0FFF75AFA64
:104C8800401B022809D9636C43F010036364A36CCA
:104C980043F00103A364012038BD23681B6813F0A7
:104CA800010FEBD0002038BD002038BD3F00008048
:104CB80090F84030012B74D070B497B0012380F87D
:104CC80040300368B3F1A04F03D103F5807301931B
:104CD80014E0364A934203D14FF0A04301930DE00C
:104CE800334A934202D1334B019307E0314A93424E
:104CF80002D12F4B019301E00023019303689A68C6
:104D080012F0040F3FD1019A946814F0040F3AD1BD
:104D1800B3F1A04F04D0254CA34203D1264D02E0A5
:104D2800254D00E0254DAB6823F46044466B4B6885
:104D380043EA46332343AB600468A36803F00303E4
:104D4800012B05D1236813F0010F03D1002302E0E2
:104D5800002300E00123E3B9946804F00304012C64
:104D680004D1126812F0010F00D001239BB9AB687F
:104D780023F4716424F00F040B688A6813432343F7
:104D8800AB60002308E0436C43F020034364012335
:104D980002E0002300E00023002280F840201846AB
:104DA80001E00220704717B070BC70470001005046
:104DB8000004005000050050000300500007005098
:104DC800DFF834D0002103E00C4B5B58435004312A
:104DD8000B480C4B42189A42F6D30B4A02E00023C8
:104DE80042F8043B094B9A42F9D3FDF7C9FE01F09A
:104DF800CDFAFDF73FFCFEE700800020CCA20008BA
:104E080000000020740A0020740A0020F80C00201A
:104E1800FEE7000030B5224A21F00043934287B0F4
:104E28001BDD204A934205DD02460B46FBF7FEFCDC
:104E380007B030BD02AA00F08FF800F00300012887
:104E48001ED0022811D010B3DDE90201DDE90423E8
:104E580000F06AFB01F10041EAE700230093002219
:104E6800002301F089F807B030BD0124DDE9020113
:104E7800DDE90423009401F07FF801F10041D7E750
:104E8800DDE90201DDE9042300F04EFBD0E701244F
:104E9800DDE90201DDE90423009401F06DF8C7E7BC
:104EA800FB21E93FFFFFEF7F2DE9F047DFF8A0A0E6
:104EB8008AB006460F4600F073FA9AF900300133BB
:104EC80004460D460FD03046394601F09DF950B1E1
:104ED8004FF000084FF0000942464B46304639462D
:104EE800FCF7CAF820B9204629460AB0BDE8F08781
:104EF800164B9AF80040019301220023CDE904677C
:104F0800CDE902670092089364B9CDE9068968463D
:104F180001F0A6F980B1089B9BB9DDE906010AB04A
:104F2800BDE8F0874046494642464B46FBF75CFFE2
:104F3800022CCDE90601EAD101F022FA212303600F
:104F4800E9E701F01DFA089B0360E6E74C9F0008BB
:104F5800FC010020000000002DE9F04F964E21F0E2
:104F6800004BB3458FB00C4640F381809246934A7C
:104F7800934526DC002986A3D3E9002340F3A881C2
:104F8800FBF754FC8E4B9B4504460D4600F084808D
:104F980081A3D3E90023FBF749FC02460B46CAE983
:104FA800002320462946FBF741FC7BA3D3E90023D5
:104FB800FBF73CFC0125CAE9020128460FB0BDE811
:104FC800F08F804A934540F384807F4A934559DCAB
:104FD8004FEA2B55A5F21645ABEB05573946064661
:104FE800FCF772F8FBF770FD8046894602460B46CF
:104FF80030463946CDE90889FBF718FC0022734B87
:10500800FBF7C8FD0F460646FCF75EF8FBF75CFDAC
:1050180002460B468046894630463946CDE90A891C
:10502800FBF704FC0022694BFBF7B4FD00220023C8
:10503800CDE90C01FCF716F8002800F07581002373
:10504800404649460022FCF70DF8002814BF01230A
:10505800022302225E49009201912A4608A851467D
:1050680000F086FB002CC0F25181054606E0C2E93B
:10507800000100250024C2E90245002528460FB09A
:10508800BDE8F08F02460B46FBF7D0FB0025CAE9C6
:105098000201CAE90001F1E741A3D3E90023FBF7C4
:1050A800C5FB41A3D3E900230D460446FBF7BEFB2D
:1050B80002460B46CAE9002329462046FBF7B6FB01
:1050C80039A3D3E90023FBF7B1FB0125CAE90201A3
:1050D800D4E701F009F836A3D3E9002306460F46C2
:1050E800FBF758FD00223B4BFBF7A2FBFBF7ECFF5D
:1050F8000546FBF7E9FC26A3D3E90023CDE9040123
:10510800FBF748FD02460B4630463946FBF78EFB57
:1051180021A3D3E9002380468946DDE90401FBF792
:1051280039FD1F2DCDE902014046494656DC2A4B80
:105138006A1E53F822305B4550D0DDE90223FBF7A5
:1051480075FB02460B46CAE9002307460E463A4657
:10515800334640464946FBF769FBDDE90223FBF786
:1051680065FB002C02460B46CAE9022386DA06F1E3
:10517800004601F10041CAF80070CAF80460CAF894
:105188000C10CAF808006D4278E700BFAFF3008042
:1051980000004054FB21F93F3163621A61B4D03DED
:1051A8000000601A61B4D03D7370032E8A19A33BC6
:1051B80083C8C96D305FE43FFB21E93F7BD90240DA
:1051C800FB21F93FFB213941FFFFEF7F00007041D0
:1051D800D49F00080000E03F549F0008DDE9022347
:1051E800FBF724FB0E464FEA2B5BC6F30A53C3EBCF
:1051F8000B03102B0746CAE90001A8DD5CA3D3E91D
:105208000023DDE90401FBF7C5FC06460F463246DC
:105218003B4640464946FBF709FBCDE90601DDE977
:10522800062340464946FBF701FB32463B46FBF75F
:10523800FDFA51A3D3E9002306460F46DDE9040130
:10524800FBF7A8FC32463B46FBF7F0FACDE9020132
:10525800DDE90223DDE90601FBF7E8FA0E46C1F3B2
:105268000A51C1EB0B0B02463346BBF1310F07461F
:10527800CAE9002378DD42A3D3E90023DDE904016C
:10528800FBF788FC06460F4632463B46DDE9060139
:10529800FBF7CCFA8046894642464B46DDE90601D3
:1052A800FBF7C4FA32463B46FBF7C0FA36A3D3E90C
:1052B800002306460F46DDE90401FBF76BFC324686
:1052C8003B46FBF7B3FACDE902014046494634E7CD
:1052D800FBF7AEFA304B9B4504460D4626D02CA36F
:1052E800D3E90023FBF7A4FA02460B46CAE90023D8
:1052F80029462046FBF79AFA25A3D3E90023FBF7B2
:1053080097FA4FF0FF35CAE90201B7E6DAF8042048
:10531800DAF80C3002F1004203F100434542CAF8C2
:105328000420CAF80C30A9E6032392E610A3D3E9B7
:105338000023FBF77DFA10A3D3E900230D460446AA
:10534800FBF776FA02460B46CAE9002329462046AF
:10535800FBF76CFA08A3D3E90023FBF769FA4FF0CF
:10536800FF35CAE9020189E6DDE90689EFE600BFF3
:105378000000601A61B4D03D7370032E8A19A33BF4
:105388000000002E8A19A33BC14920259A837B3946
:105398003163621A61B4D03DFB21F93FAFF300805D
:1053A8002DE9F8435F4EB6460E4076450C460B464F
:1053B800054600F097800029024676DD0F1500F0BB
:1053C8008180A7F2FF37C3F31303F80743F4801370
:1053D80060D4D10F002601EB43037F105200B6467C
:1053E80016204FF400110EEB01049C424FEAD275CF
:1053F8004FEA420203DC1B1B04EB010E0E4401388A
:1054080005EB43034FEA5101EDD1844620254FF0C7
:1054180000410AE0734521D0D40F013D4FEA510104
:1054280004EB43034FEA420221D09E450CEB0104F2
:10543800F0DA002C04EB010C0ADBF046CEEB030398
:10544800944288BF03F1FF33121B0844C646E3E7C2
:10545800BCF1000FF1DB0EF10108EFE7944217D819
:10546800002C04EB010C47DB98460023ECE71343C0
:1054780015D14008731003F17F5303F50013F207A9
:1054880003EB075948BF40F000404946BDE8F883A0
:105498009E46C1E7D10F01EB4303520099E7411C37
:1054A80030D000F001031844E3E721F0004606433A
:1054B800ECD071BB0F46D30A153F5205002BFAD02A
:1054C800DD0222D400215B00DC0201F10101FAD5E2
:1054D800C1F10100C1F1200422FA04F42343074476
:1054E8008A406EE702460B46FBF754FB2A462346E2
:1054F800FBF79EF9BDE8F883BCF1000FABDAF04684
:105508000023A1E701362846B4E720240120002122
:10551800E2E702460B46FBF789F902460B46FBF722
:1055280063FCB3E70000F07F2DE9F04F21F000475E
:10553800B7F1795F85B00C4692469B4605466BDA13
:10554800FBF7C2FD002800F0E8802A4623462846DB
:105558002146FBF71FFB74A3D3E900238046894645
:10556800FBF718FB72A3D3E90023FBF761F9424666
:105578004B46FBF70FFB70A3D3E90023FBF756F963
:1055880042464B46FBF706FB6DA3D3E90023FBF726
:105598004FF942464B46FBF7FDFA6BA3D3E90023CC
:1055A800FBF744F942464B46FBF7F4FA68A3D3E904
:1055B8000023FBF73DF942464B46FBF7EBFACDE9F2
:1055C8000001404649460022634BFBF7E3FADDE958
:1055D800002306460F4640464946FBF7DBFA52468B
:1055E800804689465B4628462146FBF7D3FA0246A1
:1055F8000B4640464946FBF719F902460B4630462A
:105608003946FBF713F902460B4600205349FBF7CE
:105618000DF905B0BDE8F08F02460B46FBF7BAFA64
:1056280041A3D3E9002380468946FBF7B3FA40A398
:10563800D3E90023FBF7FCF842464B46FBF7AAFAEE
:105648003DA3D3E90023FBF7F1F842464B46FBF7AD
:10565800A1FA3BA3D3E90023FBF7EAF842464B46FD
:10566800FBF798FA38A3D3E90023FBF7DFF84246A3
:105678004B46FBF78FFA36A3D3E90023FBF7D8F89C
:105688004B464246FBF786FA354B9F42CDE900016F
:1056980097DD344B9F424FF0000238DCA7F500132A
:1056A80000202E4916461F46FBF7C0F8CDE9020137
:1056B800404649460022284BFBF76CFA32463B46E7
:1056C800FBF7B4F8DDE9002306460F464046494695
:1056D800FBF760FA5246804689465B4628462146D3
:1056E800FBF758FA02460B4640464946FBF79EF838
:1056F80002460B4630463946FBF798F802460B46F9
:10570800DDE90201FBF792F805B0BDE8F08F164B12
:10571800164FCDE902230026CAE71049002005B03C
:10572800BDE8F08FAFF30080D43888BEE9FAA8BD91
:10573800C4B1B4BD9EEE213EAD529C804F7E923ED8
:105748009015CB19A001FA3E7751C1166CC1563F8E
:105758004C5555555555A53F0000E03F0000F03F1A
:105768003233D33F0000E93F0000E73F0000D23F5B
:105778002DE9F04FADF51D7D7B4CA69E7B4D54F871
:10578800264009942646D41E85FB0475E417C4EB0D
:10579800A50424EAE4741D460C93E34303EB430396
:1057A800013D02EBC30308932B460D940395651B3B
:1057B8009C1904900A9116D42C44013422AEA79F58
:1057C80008E057F82500FBF77FF90135A542E6E91F
:1057D800020108D0002DF4DA013500200021A5428D
:1057E800E6E90201F6D1099B002B31DB099A0C9BF3
:1057F80074A901EBC20BC3EB4373039A24A9DB0022
:1058080001EBC20800930DF5E479039B002BC0F26D
:105818009981049BA3F1080A009B444608EB030501
:1058280000260027FAE9022374E80201FBF7B2F91F
:1058380002460B4630463946FAF7FAFFAC420646AE
:105848000F46EFD1E9E90267D94508F10808DCD12C
:10585800099901F18043013B9B001A1D10A80244DD
:1058680003440F920E938B464FEACB039CA91A462A
:105878000693BBF1000F0B4453E9284528DD0DF5CD
:10588800E87A0AEB02060FAF0022394B2046294678
:10589800FBF780F9FBF718FCFBF716F90022354BEC
:1058A80080468946FBF776F902460B46204629468C
:1058B800FAF7BCFFFBF708FC76E9022347F8040F68
:1058C80049464046FAF7B4FF564504460D46DBD133
:1058D800DDF82090204629464A4600F0C5FC002203
:1058E8004FF07F5304460D46FBF754F900F000FCD7
:1058F8000022214BFBF74EF902460B46204629466B
:10590800FAF794FF04460D46FBF7DEFB8046FBF7EB
:10591800DBF802460B4620462946FAF787FF4C4635
:10592800002C06460F4640F3F3800BF1FF3110AB15
:10593800C9F1180253F8213043FA02F000FA02F5CF
:1059480010AA5D1BC9F1170342F8215080441D417C
:10595800002D3EDDBBF1000F08F1010840F38A82FB
:10596800002214460FA911E0DCA00008ABAAAA2A5D
:105978000000703E0000704100002040C3F18070BC
:105988000BB108600124013293450DDD51F8043F45
:10599800002CF3D0C3F1FF13013203F57F43934585
:1059A8000B604FF00104F1DC089B002B0EDD012B8E
:1059B80000F0B680022B09D10BF1FF3210AB10A911
:1059C80053F82230C3F3150341F82230022D00F0BA
:1059D80086803046394600220023FBF743FB002827
:1059E80000F0CC80099B0BF1FF3A53450DDC10AB5E
:1059F8000F9803EB8B03002253F8041D834242EAFD
:105A08000102F9D1002A40F01B82099B10AA013B30
:105A180052F82330002B40F02B820E9A012352F8C3
:105A2800041D01330029FAD05B441A460B930BF18D
:105A3800010393424DDC0D9A03EB02090B9A0C9B70
:105A480009F180495B44CBEB020BA79A09F1FF39B6
:105A580002EB890200924FEACB02DB00059224AAEE
:105A680002EB030B0793069B74AA02EB030A4FF0A1
:105A78000008009B53F8040F0093FBF725F8039BDD
:105A8800002BEBE8020127DB079B03EB0804069BCE
:105A980008EB030524AB1C441D44049B0026A3F11A
:105AA80008090027F9E9022374E80201FBF772F8F4
:105AB80002460B4630463946FAF7BAFEAC4206466D
:105AC8000F46EFD1059B08F108089845EAE90267F7
