:020000040800F2
:10000000008000206D340008BD340008BD340008B5
:10001000BD340008BD340008BD34000800000000F5
:10002000000000000000000000000000BD340008D7
:10003000BD34000800000000BD340008312600086F
:10004000BD340008BD340008BD340008BD340008CC
:10005000BD340008BD340008BD340008BD340008BC
:10006000BD340008BD340008BD340008BD340008AC
:10007000BD340008BD340008BD340008BD3400089C
:10008000BD340008BD34000819260008BD3400083E
:10009000BD340008BD340008BD340008BD3400087C
:1000A000BD340008E1250008BD340008BD34000857
:1000B000BD340008D1250008BD340008BD34000857
:1000C000BD340008BD340008BD340008BD3400084C
:1000D000BD340008BD340008BD340008BD3400083C
:1000E000BD340008BD340008BD340008BD3400082C
:1000F000BD340008BD340008BD34000809260008DE
:10010000000000000000000000000000BD340008F6
:10011000BD340008BD340008BD340008BD340008FB
:10012000BD340008BD340008BD340008BD340008EB
:10013000BD340008F92500080000000000000000A0
:10014000BD340008BD340008BD34000800000000C4
:10015000000000000000000000000000000000009F
:100160000000000000000000BD340008BD3400089D
:10017000BD34000800000000000000000000000086
:0801800000000000BD3400087E
:1001880010B5054C237833B9044B13B10448AFF3C9
:1001980000800123237010BD7000002000000000C3
:1001A800804A0008084B10B51BB108480849AFF34E
:1001B80000800848036803B910BD074B002BFBD02B
:1001C800BDE81040184700BF00000000804A000842
:1001D80074000020700000200000000080F0004043
:1001E80002E000BF81F0004142001FBF5FEA410307
:1001F80092EA030F7FEA226C7FEA236C6AD04FEA07
:100208001262D2EB1363C1BFD2184140484041404B
:10021800B8BF5B42192B88BF704710F0004F40F4FD
:10022800000020F07F4018BF404211F0004F41F419
:10023800000121F07F4118BF494292EA030F3FD0E5
:10024800A2F1010241FA03FC10EB0C00C3F12003F8
:1002580001FA03F100F0004302D5494260EB400087
:10026800B0F5000F13D3B0F1807F06D340084FEAF2
:10027800310102F10102FE2A51D2B1F1004F40EBE7
:10028800C25008BF20F0010040EA0300704749004F
:1002980040EB000010F4000FA2F10102EDD1B0FA1A
:1002A80080FCACF1080CB2EB0C0200FA0CF0AABF0F
:1002B80000EBC25052421843BCBFD04018437047AD
:1002C80092F0000F81F4000106BF80F400000132B3
:1002D800013BB5E74FEA41037FEA226C18BF7FEA8A
:1002E800236C21D092EA030F04D092F0000F08BFCC
:1002F8000846704790EA010F1CBF0020704712F0B3
:100308007F4F04D1400028BF40F00040704712F1F1
:1003180000723CBF00F50000704700F0004343F056
:10032800FE4040F4000070477FEA226216BF08468C
:100338007FEA23630146420206BF5FEA412390EA4F
:10034800010F40F4800070474FF0000304E000BF45
:1003580010F0004348BF40425FEA000C08BF7047F6
:1003680043F0964301464FF000001CE050EA0102BA
:1003780008BF70474FF000030AE000BF50EA0102CF
:1003880008BF704711F0004302D5404261EB4101BC
:100398005FEA010C02BF84460146002043F0B643E1
:1003A80008BFA3F18053A3F50003BCFA8CF2083A06
:1003B800A3EBC25310DB01FA02FC634400FA02FC0F
:1003C800C2F12002BCF1004F20FA02F243EB020016
:1003D80008BF20F00100704702F1200201FA02FC78
:1003E800C2F1200250EA4C0021FA02F243EB02006B
:1003F80008BF20EADC7070474FF0FF0C1CEAD052AF
:100408001EBF1CEAD15392EA0C0F93EA0C0F6FD06F
:100418001A4480EA010C400218BF5FEA41211ED04D
:100428004FF0006343EA501043EA5111A0FB013139
:100438000CF00040B1F5000F3EBF490041EAD3710E
:100448005B0040EA010062F17F02FD2A1DD8B3F18A
:10045800004F40EBC25008BF20F00100704790F0F9
:10046800000F0CF0004C08BF49024CEA502040EA4B
:1004780051207F3AC2BFD2F1FF0340EAC250704711
:1004880040F400004FF00003013A5DDC12F1190F4F
:10049800DCBF00F000407047C2F10002410021FAC1
:1004A80002F1C2F1200200FA02FC5FEA310040F1D9
:1004B800000053EA4C0308BF20EADC70704792F052
:1004C800000F00F0004C02BF400010F4000F013A8A
:1004D800F9D040EA0C0093F0000F01F0004C02BF85
:1004E800490011F4000F013BF9D041EA0C018FE7F4
:1004F8000CEAD15392EA0C0F18BF93EA0C0F0AD0FA
:1005080030F0004C18BF31F0004CD8D180EA01001F
:1005180000F00040704790F0000F17BF90F0004FB8
:10052800084691F0000F91F0004F14D092EA0C0F9A
:1005380001D142020FD193EA0C0F03D14B0218BF2D
:10054800084608D180EA010000F0004040F0FE4073
:1005580040F40000704740F0FE4040F4400070470F
:100568004FF0FF0C1CEAD0521EBF1CEAD15392EA8E
:100578000C0F93EA0C0F69D0A2EB030280EA010C7E
:1005880049024FEA402037D04FF0805343EA111117
:1005980043EA10130CF000408B4238BF5B0042F175
:1005A8007D024FF4000C8B4224BF5B1A40EA0C001A
:1005B800B3EB510F24BFA3EB510340EA5C00B3EB4C
:1005C800910F24BFA3EB910340EA9C00B3EBD10F3A
:1005D80024BFA3EBD10340EADC001B0118BF5FEA8C
:1005E8001C1CE0D1FD2A3FF650AF8B4240EBC250B5
:1005F80008BF20F0010070470CF0004C4CEA502076
:100608007F32C2BFD2F1FF0340EAC250704740F4C4
:1006180000004FF00003013A37E792F0000F00F0B6
:10062800004C02BF400010F4000F013AF9D040EA34
:100638000C0093F0000F01F0004C02BF490011F4C8
:10064800000F013BF9D041EA0C0195E70CEAD153C0
:1006580092EA0C0F08D142027FF47DAF93EA0C0FA7
:100668007FF470AF084676E793EA0C0F04D14B028B
:100678003FF44CAF08466EE730F0004C18BF31F03D
:10068800004CCAD130F000427FF45CAF31F0004337
:100698007FF43CAF5FE700BF4FF0FF3C06E000BFD0
:1006A8004FF0010C02E000BF4FF0010C4DF804CDF3
:1006B8004FEA40024FEA41037FEA226C18BF7FEA03
:1006C800236C11D001B052EA530C18BF90EA010F05
:1006D80058BFB2EB030088BFC81738BF6FEAE17094
:1006E80018BF40F0010070477FEA226C02D15FEA30
:1006F800402C05D17FEA236CE4D15FEA412CE1D09C
:100708005DF8040B704700BF844608466146FFE762
:100718000FB5FFF7C9FF002848BF10F1000F0FBD44
:100728004DF808EDFFF7F4FF0CBF012000205DF83D
:1007380008FB00BF4DF808EDFFF7EAFF34BF0120C2
:1007480000205DF808FB00BF4DF808EDFFF7E0FF5B
:1007580094BF012000205DF808FB00BF4DF808EDAC
:10076800FFF7D2FF94BF012000205DF808FB00BF0F
:100778004DF808EDFFF7C8FF34BF012000205DF8F1
:1007880008FB00BF42000ED2B2F1FE4F0BD34FF070
:100798009E03B3EB126209D44FEA002343F00043EF
:1007A80023FA02F070474FF00000704712F1610F12
:1007B80001D1420202D14FF0FF3070474FF00000E4
:1007C800704700BF81F0004102E000BF83F00043A2
:1007D80030B54FEA41044FEA430594EA050F08BFD4
:1007E80090EA020F1FBF54EA000C55EA020C7FEA98
:1007F800645C7FEA655C00F0E2804FEA5454D4EB15
:100808005555B8BF6D420CDD2C4480EA020281EADE
:10081800030382EA000083EA010180EA020281EA16
:100828000303362D88BF30BD11F0004F4FEA013168
:100838004FF4801C4CEA113102D0404261EB410177
:1008480013F0004F4FEA03334CEA133302D05242FD
:1008580063EB430394EA050F00F0A780A4F10104B9
:10086800D5F1200E0DDB02FA0EFC22FA05F28018F3
:1008780041F1000103FA0EF2801843FA05F35941D9
:100888000EE0A5F120050EF1200E012A03FA0EFC58
:1008980028BF4CF0020C43FA05F3C01851EBE37182
:1008A80001F0004507D54FF0000EDCF1000C7EEB9F
:1008B80000006EEB0101B1F5801F1BD3B1F5001FDD
:1008C8000CD349085FEA30004FEA3C0C04F10104FC
:1008D8004FEA445212F5800F80F09A80BCF1004F25
:1008E80008BF5FEA500C50F1000041EB045141EAA7
:1008F800050130BD5FEA4C0C404141EB010111F4A8
:10090800801FA4F10104E9D191F0000F04BF014652
:100918000020B1FA81F308BF2033A3F10B03B3F130
:1009280020020CDA0C3208DD02F1140CC2F10C02C0
:1009380001FA0CF021FA02F10CE002F11402D8BF1E
:10094800C2F1200C01FA02F120FA0CFCDCBF41EAEA
:100958000C019040E41AA2BF01EB0451294330BDB9
:100968006FEA04041F3C1CDA0C340EDC04F1140496
:10097800C4F1200220FA04F001FA02F340EA03006D
:1009880021FA04F345EA030130BDC4F10C04C4F1B3
:10099800200220FA02F001FA04F340EA0300294693
:1009A80030BD21FA04F0294630BD94F0000F83F4DD
:1009B800801306BF81F480110134013D4EE77FEAC0
:1009C800645C18BF7FEA655C29D094EA050F08BF0C
:1009D80090EA020F05D054EA000C04BF19461046ED
:1009E80030BD91EA030F1EBF0021002030BD5FEA31
:1009F800545C05D14000494128BF41F0004130BD59
:100A080014F580043CBF01F5801130BD01F00045AC
:100A180045F0FE4141F470014FF0000030BD7FEA1F
:100A2800645C1ABF194610467FEA655C1CBF0B461A
:100A3800024650EA013406BF52EA033591EA030F31
:100A480041F4002130BD00BF90F0000F04BF002129
:100A5800704730B54FF4806404F132044FF000055C
:100A68004FF0000150E700BF90F0000F04BF0021D5
:100A7800704730B54FF4806404F1320410F000453B
:100A880048BF40424FF000013EE700BF42004FEA36
:100A9800E2014FEA31014FEA02701FBF12F07F43B3
:100AA80093F07F4F81F06051704792F0000F14BFB0
:100AB80093F07F4F704730B54FF4607401F00045F4
:100AC80021F0004120E700BF50EA010208BF70474B
:100AD80030B54FF000050AE050EA010208BF704740
:100AE80030B511F0004502D5404261EB41014FF4A9
:100AF800806404F132045FEA915C3FF4DCAE4FF0AD
:100B080003025FEADC0C18BF03325FEADC0C18BF93
:100B1800033202EBDC02C2F1200300FA03FC20FAE4
:100B280002F001FA03FE40EA0E0021FA02F1144431
:100B3800C1E600BF70B54FF0FF0C4CF4E06C1CEA46
:100B480011541DBF1CEA135594EA0C0F95EA0C0FBB
:100B580000F0DEF82C4481EA030621EA4C5123EA2E
:100B68004C5350EA013518BF52EA033541F480115D
:100B780043F4801338D0A0FB02CE4FF00005E1FB10
:100B880002E506F00042E0FB03E54FF00006E1FB5A
:100B980003569CF0000F18BF4EF0010EA4F1FF049D
:100BA800B6F5007F64F5407404D25FEA4E0E6D41DD
:100BB80046EB060642EAC62141EA55514FEAC520EE
:100BC80040EA5E504FEACE2EB4F1FD0C88BFBCF56A
:100BD800E06F1ED8BEF1004F08BF5FEA500E50F11B
:100BE800000041EB045170BD06F0004646EA0101E1
:100BF80040EA020081EA0301B4EB5C04C2BFD4EB13
:100C08000C0541EA045170BD41F480114FF0000E0B
:100C1800013C00F3AB8014F1360FDEBF002001F079
:100C2800004170BDC4F10004203C35DA0C341BDCF3
:100C380004F11404C4F1200500FA05F320FA04F0C5
:100C480001FA05F240EA020001F0004221F00041F9
:100C580010EBD37021FA04F642EB06015EEA430E6C
:100C680008BF20EAD37070BDC4F10C04C4F120059C
:100C780000FA04F320FA05F001FA04F240EA02004F
:100C880001F0004110EBD37041F100015EEA430E20
:100C980008BF20EAD37070BDC4F1200500FA05F240
:100CA8004EEA020E20FA04F301FA05F243EA0203BF
:100CB80021FA04F001F0004121FA04F220EA0200CE
:100CC80000EBD3705EEA430E08BF20EAD37070BD14
:100CD80094F0000F0FD101F00046400041EB0101F4
:100CE80011F4801F08BF013CF7D041EA060195F0D6
:100CF800000F18BF704703F00046520043EB030390
:100D080013F4801F08BF013DF7D043EA060370477C
:100D180094EA0C0F0CEA135518BF95EA0C0F0CD087
:100D280050EA410618BF52EA4306D1D181EA0301CD
:100D380001F000414FF0000070BD50EA410606BFC7
:100D48001046194652EA430619D094EA0C0F02D10C
:100D580050EA013613D195EA0C0F05D152EA033651
:100D68001CBF104619460AD181EA030101F000416F
:100D780041F0FE4141F470014FF0000070BD41F0B8
:100D8800FE4141F4780170BD70B54FF0FF0C4CF492
:100D9800E06C1CEA11541DBF1CEA135594EA0C0FB1
:100DA80095EA0C0F00F0A7F8A4EB050481EA030EFE
:100DB80052EA03354FEA013100F088804FEA0333E5
:100DC8004FF0805545EA131343EA12634FEA0222B3
:100DD80045EA111545EA10654FEA00260EF0004174
:100DE8009D4208BF964244F1FD0404F5407402D2C6
:100DF8005B084FEA3202B61A65EB03055B084FEA57
:100E080032024FF480104FF4002CB6EB020E75EB53
:100E1800030E22BFB61A754640EA0C005B084FEA7B
:100E28003202B6EB020E75EB030E22BFB61A7546F8
:100E380040EA5C005B084FEA3202B6EB020E75EB43
:100E4800030E22BFB61A754640EA9C005B084FEABB
:100E58003202B6EB020E75EB030E22BFB61A7546C8
:100E680040EADC0055EA060E18D04FEA051545EAB7
:100E780016754FEA06164FEAC30343EA52734FEA60
:100E8800C2025FEA1C1CC0D111F4801F0BD141EAD9
:100E980000014FF000004FF0004CB6E711F4801F3E
:100EA80004BF01430020B4F1FD0C88BFBCF5E06F1E
:100EB8003FF6AFAEB5EB030C04BFB6EB020C5FEA2E
:100EC800500C50F1000041EB045170BD0EF0004E83
:100ED8004EEA113114EB5C04C2BFD4EB0C0541EAB5
:100EE800045170BD41F480114FF0000E013C90E6B2
:100EF80045EA060E8DE60CEA135594EA0C0F08BF76
:100F080095EA0C0F3FF43BAF94EA0C0F0AD150EA74
:100F180001347FF434AF95EA0C0F7FF425AF104607
:100F280019462CE795EA0C0F06D152EA03353FF42F
:100F3800FDAE1046194622E750EA410618BF52EAAC
:100F480043067FF4C5AE50EA41047FF40DAF52EA80
:100F580043057FF4EBAE12E74FF0FF3C06E000BF1D
:100F68004FF0010C02E000BF4FF0010C4DF804CD2A
:100F78004FEA410C7FEA6C5C4FEA430C18BF7FEAEA
:100F88006C5C1BD001B050EA410C0CBF52EA430C18
:100F980091EA030F02BF90EA020F0020704710F198
:100FA800000F91EA030F58BF994208BF90422CBF27
:100FB800D8176FEAE37040F0010070474FEA410C20
:100FC8007FEA6C5C02D150EA013C07D14FEA430C3E
:100FD8007FEA6C5CD6D152EA033CD3D05DF8040BAF
:100FE800704700BF8446104662468C4619466346E1
:100FF80000E000BF01B5FFF7B7FF002848BF10F1B8
:10100800000F01BD4DF808EDFFF7F4FF0CBF0120FC
:1010180000205DF808FB00BF4DF808EDFFF7EAFF78
:1010280034BF012000205DF808FB00BF4DF808ED33
:10103800FFF7E0FF94BF012000205DF808FB00BF28
:101048004DF808EDFFF7CEFF94BF012000205DF8B2
:1010580008FB00BF4DF808EDFFF7C4FF34BF0120BF
:1010680000205DF808FB00BF4FEA410212F50012AC
:1010780015D211D56FF47873B3EB625212D94FEAD7
:10108800C12343F0004343EA505311F0004F23FAC1
:1010980002F018BF404270474FF00000704750EA16
:1010A800013005D111F0004008BF6FF000407047D3
:1010B8004FF00000704700BF0AB18161704781623C
:1010C800704700BF03690B4201D001207047002020
:1010D800704700BFF0B583B00023BFE001249C40F7
:1010E800224000F0BA804C68022C01D0122C14D196
:1010F8004FEAD30E0EF1080E50F82E6003F0070CDD
:101108004FEA8C0C0F2404FA0CF426EA04050C6947
:1011180004FA0CF42C4340F82E4005684FEA430EBD
:10112800032404FA0EF4E44304EA05064D6805F0C6
:10113800030505FA0EF5354305604D686E1E012E50
:1011480003D9112D01D0122D13D1856804EA0506A3
:10115800CD6805FA0EF53543856046680125BD4022
:1011680026EA050C4E68C6F30016BE4046EA0C0592
:101178004560C56825408C6804FA0EF42C43C460A9
:101188004C6814F0805F68D0384CA56945F00105BB
:10119800A561A46904F001040194019C9F08BD1C89
:1011A800334C54F8256003F0030E4FEA8E0E0F24DB
:1011B80004FA0EF426EA0405B0F1904F18D02D4C2D
:1011C800A04213D004F58064A0420DD004F58064D9
:1011D800A04207D004F58064A04201D1042408E0AD
:1011E800052406E0032404E0022402E0012400E0D0
:1011F800002404FA0EF42C4302371D4D45F827400D
:101208001D4C2568D44304EA05064F6817F4803F4F
:1012180001D042EA0506184D2E606D6804EA0506FD
:101228004F6817F4003F01D042EA0506124D6E6080
:10123800AD6804EA05064F6817F4801F01D042EA3A
:1012480005060D4DAE60ED682C404E6816F4001F83
:1012580001D042EA0504084AD46001330A681F46EF
:1012680032FA03F47FF43AAF03B0F0BD0010024045
:10127800000001400004004800040140042805D192
:10128800054A136843F0040313607047024A136861
:1012980023F004031360704710E000E00138B0F158
:1012A800807F0AD2064B5860F021064A82F8231044
:1012B8000020986007221A6070470120704700BF1D
:1012C80010E000E000ED00E0410900F01F000123FC
:1012D8008340024A42F82130704700BF00E100E035
:1012E80030B4164BDC68C4F30224C4F10705042D9E
:1012F80028BF0425231D062B01D9033C00E0002448
:10130800012303FA05F5013D2940A140A340013B13
:101318001A400A43002806DA00F00F001201D2B280
:10132800074B1A5407E01201D2B200F1604000F5F1
:10133800614080F8002330BC704700BF00ED00E03A
:1013480014ED00E000F00700064AD36823F4E063D8
:101358001B041B0C43EA002040F0BF6040F400303F
:10136800D060704700ED00E0024A13680133136053
:10137800704700BF9402002003681A6812F0040F37
:1013880003D05A6812F0040F08D11A6812F0080F37
:1013980000F083805A6812F0080F7ED0426C12F079
:1013A800100F03D1426C42F400724264B3F1A04FB3
:1013B80002D0994A934205D1984A926812F01F0FB9
:1013C80031D004E0964A926812F01F0F2BD0B3F187
:1013D800A04F02D0904A934206D1904A926802F0F8
:1013E8001F02052A06D11EE08D4A926802F01F02EC
:1013F800052A18D0B3F1A04F02D0874A934206D1EC
:10140800864A926802F01F02092A06D10BE0844A34
:10141800926802F01F02092A05D0B3F1A04F02D04A
:10142800804A934201D1D9680CE0B3F1A04F05D0AE
:10143800794A934204D14FF0A04202E01A4600E0F4
:10144800784AD168DA6812F4406F23D111F4005F4A
:1014580020D11A6812F0080F1CD09A6812F0040FF5
:1014680010D15A6822F00C025A60436C23F480733E
:101478004364436C13F4805F0CD1436C43F0010365
:10148800436407E0436C43F010034364836C43F008
:101498000103836403680C221A6003681A6812F057
:1014A800200F03D05A6812F0200F09D11A6812F0E1
:1014B800400F00F0DE805A6812F0400F00F0D9802B
:1014C800426C42F400524264B3F1A04F02D0524A37
:1014D800934205D1514A926812F01F0F31D004E0AF
:1014E8004F4A926812F01F0F2BD0B3F1A04F02D0D1
:1014F800494A934206D1494A926802F01F02052AD6
:1015080006D11EE0464A926802F01F02052A18D04A
:10151800B3F1A04F02D0404A934206D13F4A9268A5
:1015280002F01F02092A06D10BE03D4A926802F038
:101538001F02092A05D0B3F1A04F02D0394A9342BD
:1015480001D1D9680CE0B3F1A04F05D0324A9342DB
:1015580004D14FF0A04202E01A4600E0314AD168B7
:10156800DA6C12F0C00F09D011F0007F7ED1DA6872
:1015780012F4406F7AD111F4005F77D11A6812F033
:10158800400F73D0B3F1A04F02D0234A934205D144
:10159800224A926812F01F0F31D004E0204A926864
:1015A80012F01F0F2BD0B3F1A04F02D01A4A93426A
:1015B80006D11A4A926802F01F02062A06D11EE0D6
:1015C800174A926802F01F02062A18D0B3F1A04FFA
:1015D80002D0114A934206D1104A926802F01F02C3
:1015E800072A06D10BE00E4A926802F01F02072A6A
:1015F80005D0B3F1A04F02D00A4A934201D1DA686C
:1016080014E0B3F1A04F05D0034A93420CD14FF038
:10161800A0420AE01A4608E000010050000300500A
:101628000007005000040050524AD26812F4001F0C
:101638001CD19A6812F0080F10D15A6822F0600283
:101648005A60436C23F480534364436C13F4807FE3
:101658000CD1436C43F00103436407E0436C43F04F
:1016680010034364836C43F00103836403686022BE
:101678001A6003681A6812F0800F0AD05B6813F0CA
:10168800800F06D0436C43F48033436403688022A0
:101698001A6003681A6812F4807F0BD05B6813F431
:1016A800807F07D0436C43F40033436403684FF4EE
:1016B80080721A6003681A6812F4007F0BD05B68A6
:1016C80013F4007F07D0436C43F48023436403681A
:1016D8004FF400721A6003681A6812F0100F33D0C2
:1016E8005A6812F0100F2FD0826B012A1BD0B3F169
:1016F800A04F05D0204A934204D102F5007202E0BF
:101708001E4A00E01E4A916811F01F0F05D1DB68E0
:1017180013F0010F09D100230AE0936813F4404F36
:1017280005D1002304E0012302E0012300E00123A6
:101738003BB1436C43F480634364836C43F002031E
:101748008364036810221A6003681A6812F4806FB1
:101758000ED05A6812F4806F0AD0426C42F480426C
:101768004264826C42F0080282644FF480621A601C
:10177800704700BF000400500001005000030050F3
:101788000007005000B583B00A4B9A6942F0010285
:101798009A619B6903F001030193019B0320FFF702
:1017A800D1FD4FF0FF3000210A46FFF799FD03B045
:1017B8005DF804FB00100240F0B58BB05B4B5A6932
:1017C80042F400225A615A6902F400220192019AF5
:1017D8005A6942F480025A615A6902F480020292FC
:1017E800029A5A6942F400325A615A6902F4003284
:1017F8000392039A5A6942F480225A615B6903F49E
:1018080080230493049B4FF0904049F62061002206
:10181800FFF752FC464D284648F2FA310022FFF7FE
:101828004BFC4FF460430593002406940794414809
:1018380005A9FFF74FFC49F6206305930127069792
:10184800079408944FF0904005A9FFF743FC48F22D
:10185800FA330593069707940894284605A9FFF7D5
:1018680039FC4FF48043059306940794284605A94C
:10187800FFF730FC4FF48073059302260696079411
:101888000894062309934FF0904005A9FFF722FC1E
:101898008023059306960794089409964FF0904084
:1018A80005A9FFF717FC059706960794089409966B
:1018B800284605A9FFF70EFC4023059306960794D2
:1018C800089409974FF0904005A9FFF703FC0F23F0
:1018D80005930326069607944FF0904005A9FFF755
:1018E800F9FB10230593069607944FF0904005A93D
:1018F800FFF7F0FB0423059306960794284605A9ED
:10190800FFF7E8FB4FF40053059306960794284623
:1019180005A9FFF7DFFB4FF480530593069607945C
:10192800284605A9FFF7D6FB0BB0F0BD0010024012
:10193800000400480008004830B589B0154D164B22
:101948002B6000246C60AC604FF43463EB602C6156
:101958006C61284600F066FF284600F049FF6023C6
:1019680001934FF4B463029303940494059406948A
:101978000794284601A9224601F0F0FB074B9A6913
:1019880042F400329A619B6903F400330093009B90
:1019980009B030BDDC0100200044014000100240C5
:1019A80030B58DB01E4C1F4B236000256560202389
:1019B800A3604FF43463E36025616561204600F05D
:1019C80017FF0CA94FF4805341F8103D204601F051
:1019D800B7FC602301934FF4FA73029303950595BE
:1019E800204601A9042201F0B9FB70230193204687
:1019F80001A9082201F0B2FB0B4BDA6942F002029E
:101A0800DA61DB6903F002030093009B1D200121CA
:101A18002A46FFF765FC1D20FFF756FC0DB030BDC8
:101A280018020020000400400010024030B58DB0BC
:101A38001C4D1D4B2B6000246C602023AB604FF4C1
:101A48003463EB602C616C61284600F0D1FE0CA970
:101A58004FF4805341F8103D284601F071FC602393
:101A680001934FF4FA730293039404940594069433
:101A78000794284601A9224601F070FB0B4B9A698E
:101A880042F400629A619B6903F400630093009B2F
:101A9800192001210A46FFF723FC1920FFF714FC3F
:101AA8000DB030BD58020020002C0140001002404B
:101AB800014B1868704700BF9402002030B583B00E
:101AC8000446036813F0010F00F0C580C34B5B6840
:101AD80003F00C03042B0AD0C04B5B6803F00C0323
:101AE800082B1DD1BD4B5B6813F4803F18D04FF411
:101AF800003393FAA3F3B94B1A684FF4003393FAFF
:101B0800A3F3B3FA83F303F01F0322FA03F313F0EA
:101B1800010F00F0A0806368002B40F09C8003E375
:101B2800AE4B1A6822F480321A601A6822F48022B6
:101B38001A60FFF7BDFF054605E0FFF7B9FF401B38
:101B4800642800F2F3824FF4003393FAA3F3A34B13
:101B58001A684FF4003393FAA3F3B3FA83F303F04C
:101B68001F0322FA03F313F0010FE6D16368B3F5FC
:101B7800803F05D1994A136843F48033136026E007
:101B880063B903F1804303F504331A6822F4803201
:101B98001A601A6822F480221A6018E0B3F5A02FA0
:101BA8000CD103F18043A3F53C331A6842F4802238
:101BB8001A601A6842F480321A6008E0874B1A6883
:101BC80022F480321A601A6822F480221A6083494B
:101BD800CB6A23F00F02A3681343CB626368EBB1AF
:101BE800FFF766FF054605E0FFF762FF401B642824
:101BF80000F29E824FF4003393FAA3F3774B1A68EE
:101C08004FF4003393FAA3F3B3FA83F303F01F03FB
:101C180022FA03F313F0010FE6D01CE0FFF748FFA8
:101C2800054605E0FFF744FF401B642800F2828266
:101C38004FF4003393FAA3F3684B1A684FF4003358
:101C480093FAA3F3B3FA83F303F01F0322FA03F31F
:101C580013F0010FE6D1236813F0020F00F0908013
:101C68005E4B5B6813F00C0F0AD05C4B5B6803F0AB
:101C78000C03082B27D1594B5B6813F4803F22D102
:101C8800022393FAA3F3554B1A68022393FAA3F39A
:101C9800B3FA83F303F01F0322FA03F313F0010FDF
:101CA80003D02369012B40F047824C48036823F096
:101CB800F8016369F82292FAA2F2B2FA82F293402A
:101CC8000B4303605CE023699BB3012292FAA2F301
:101CD800B3FA83F39B0003F1844303F584031A608A
:101CE800FFF7E6FE054605E0FFF7E2FE401B642825
:101CF80000F22482022393FAA3F3384B1A680223D2
:101D080093FAA3F3B3FA83F303F01F0322FA03F35E
:101D180013F0010FE8D03148036823F0F801636934
:101D2800F82292FAA2F2B2FA82F293400B430360CD
:101D380026E0012393FAA3F3B3FA83F39B0003F19C
:101D4800844303F5840300221A60FFF7B1FE0546B9
:101D580005E0FFF7ADFE401B642800F2F181022385
:101D680093FAA3F31D4B1A68022393FAA3F3B3FA69
:101D780083F303F01F0322FA03F313F0010FE8D1F2
:101D8800236813F0080F54D0A3695BB3012292FAB9
:101D9800A2F3B3FA83F3124941F82320FFF788FE30
:101DA800054605E0FFF784FE401B642800F2CA815F
:101DB800022393FAA3F293FAA3F293FAA3F2074A3F
:101DC800526A93FAA3F3B3FA83F303F01F0322FAD8
:101DD80003F313F0010FE5D02BE000BF0010024021
:101DE80080044242012393FAA3F3B3FA83F3002158
:101DF800BD4A42F82310FFF75BFE054605E0FFF7F2
:101E080057FE401B642800F29F81022393FAA3F235
:101E180093FAA3F293FAA3F2B44A526A93FAA3F399
:101E2800B3FA83F303F01F0322FA03F313F0010F4D
:101E3800E5D1236813F0040F00F0DA80AB4BDA69C0
:101E480042F08052DA61DB6903F080530193019B11
:101E5800A74A136843F480731360FFF729FE054609
:101E680005E0FFF725FE401B642800F26F81A04BB8
:101E78001B6813F4807FF4D09C4B1A6A22F001028D
:101E88001A621A6A22F004021A62FFF711FE054666
:101E980007E0FFF70DFE401B41F28833984200F23D
:101EA8005781022393FAA3F293FAA3F3B3FA83F3C5
:101EB80043F040035B09022B02D18C4B1A6A04E001
:101EC800022393FAA3F3894B5A6A022393FAA3F3E2
:101ED800B3FA83F303F01F0322FA03F313F0010F9D
:101EE800D7D1E368012B05D1804A136A43F0010377
:101EF800136222E063B903F1804303F504331A6ADD
:101F080022F001021A621A6A22F004021A6214E02C
:101F1800052B09D1754B1A6A42F004021A621A6A33
:101F280042F001021A6208E0704B1A6A22F00102BC
:101F38001A621A6A22F004021A62E36863B3FFF7AE
:101F4800B7FD054607E0FFF7B3FD401B41F28833B4
:101F5800984200F2FF80022393FAA3F293FAA3F3C4
:101F6800B3FA83F343F040035B09022B02D15F4BC2
:101F78001A6A04E0022393FAA3F35C4B5A6A022319
:101F880093FAA3F3B3FA83F303F01F0322FA03F3DC
:101F980013F0010FD7D02BE0FFF78AFD054607E0C5
:101FA800FFF786FD401B41F28833984200F2D48047
:101FB800022393FAA3F293FAA3F3B3FA83F343F059
:101FC80040035B09022B02D1484B1A6A04E0022342
:101FD80093FAA3F3454B5A6A022393FAA3F3B3FA8D
:101FE80083F303F01F0322FA03F313F0010FD7D191
:101FF800E369002B00F0B2803C4A526802F00C0200
:10200800082A00F0AD80022B5DD14FF0807393FA5F
:10201800A3F3B3FA83F39B0003F1844303F584032A
:1020280000221A60FFF744FD054605E0FFF740FD72
:10203800401B642800F296804FF0007393FAA3F3D4
:102048002A4B1A684FF0007393FAA3F3B3FA83F399
:1020580003F01F0322FA03F313F0010FE6D123481C
:10206800436823F47411636A226A13430B43436081
:102078004FF0807393FAA3F3B3FA83F39B0003F151
:10208800844303F5840301221A60FFF711FD044617
:1020980004E0FFF70DFD001B642865D84FF00073BE
:1020A80093FAA3F3114B1A684FF0007393FAA3F352
:1020B800B3FA83F303F01F0322FA03F313F0010FBB
:1020C800E7D0002053E04FF0807393FAA3F3B3FAFC
:1020D80083F39B0003F1844303F5840300221A6011
:1020E800FFF7E6FC04460AE0800442420010024082
:1020F80000700040FFF7DCFC001B642836D84FF066
:10210800007393FAA3F31B4B1A684FF0007393FA0A
:10211800A3F3B3FA83F303F01F0322FA03F313F0D4
:10212800010FE7D1002022E0012020E003201EE07B
:1021380003201CE003201AE0012018E0032016E029
:10214800032014E0032012E0032010E003200EE037
:1021580003200CE003200AE0032008E0002006E04A
:10216800012004E0032002E0032000E0032003B084
:1021780030BD00BF0010024030B59FB0012314935A
:102188004FF4803315930322169202251B951C9356
:102198004FF4E0131D9314A8FFF790FC0F230F933F
:1021A8001095002411944FF48063129313940FA890
:1021B800294600F081FC4FF4425300934FF480739A
:1021C80009930C940D94684600F046FB00F05AFC05
:1021D800084BA3FB00308009FFF760F80420FFF7E5
:1021E8004DF84FF0FF3021462246FFF779F81FB02F
:1021F80030BD00BFD34D621038B50268936803F054
:102208000303012B05D1136813F0010F03D1002339
:1022180002E0002300E0012363BB9168164B1942DA
:1022280009D0436C43F010034364836C43F001030B
:102238008364012038BD0446936843F0010393602A
:10224800FFF736FC05460EE0FFF732FC401B02287C
:1022580009D9636C43F010036364A36C43F0010372
:10226800A364012038BD23681B6813F0010FEBD06D
:10227800002038BD002038BD3F00008003689B68FF
:1022880013F0040F40F0CC8090F84030012B00F0A0
:10229800CC8010B50446012380F84030FFF7ACFF2E
:1022A8000346002840F0B880626C22F4706222F085
:1022B800010242F4807262642268B2F1A04F02D037
:1022C8005B498A4205D15B49896811F01F0F0BD021
:1022D80004E05949896811F01F0F05D0B2F1A04FE9
:1022E80002D056498A420ED1616C21F48011616492
:1022F800D16811F0007F21D0616C21F4405141F484
:10230800805161641AE0616C41F480116164B2F13A
:10231800A04F02D046498A4205D14FF0A041C96872
:10232800C1F3406103E04549C968C1F3406129B17F
:10233800616C21F4405141F480516164616C11F485
:10234800805F04D0A16C21F00601A16401E00021A6
:10235800A164002184F840101C2111606269082AD8
:102368000AD121684A6822F004024A6021684A6852
:1023780042F008024A6004E021684A6842F00C0210
:102388004A60A26B012A04D121684A6822F010022F
:102398004A602268B2F1A04F02D025498A4205D18D
:1023A8002449896811F01F0F31D004E02249896857
:1023B80011F01F0F2BD0B2F1A04F02D01C498A4256
:1023C80006D11C49896801F01F01052906D11EE0C4
:1023D8001949896801F01F01052918D0B2F1A04FE9
:1023E80002D013498A4206D11249896801F01F01B7
:1023F800092906D10BE01049896801F01F01092954
:1024080005D0B2F1A04F02D00C498A420BD1916895
:1024180041F00401916006E0002284F8402002E0C7
:10242800022318467047184610BD0220704700BFA7
:102438000001005000030050000700500004005045
:1024480010B582B00190FFF733FB0446FFF730FB6D
:10245800001B019B9842F9D302B010BD10B5044689
:1024680000F010FB064BA3FB00308009FEF716FFB7
:102478004FF0FF3021460022FEF732FF002010BD4A
:10248800D34D621008B5074A136843F01003136070
:102498000320FEF757FF0020FFF7E0FFFFF772F970
:1024A800002008BD0020024070B5044603683B4A7E
:1024B800934203D13A48FFF7E1FE70BD394A93428F
:1024C8006BD139484FF48041FEF7FCFD012864D1F7
:1024D800364B1B6846F2A712934216DC0133334A87
:1024E8001360022001F032F800EB40008000304B0E
:1024F80083FB0023C0172F4DC0EBE320FDF728FF17
:102508002968FDF771FE286009E0022001F01EF835
:1025180000EB40008000FDF71BFF264B1860264BA0
:102528001D6828462946FDF75FFE244B1E68314684
:10253800FEF70AF918B10022204B1A600DE0284670
:102548004FF08141FDF758FF1D49FEF709F8014694
:102558003046FDF749FE194B1860184B1868FEF70E
:1025680095FA00F0A9FFFDF7F3FE124B1968FDF785
:1025780043FF1449FDF7F4FF4FF07E51FDF734FE99
:102588004FF07C51FDF738FF2468FEF7FBF880B266
:102598004FF4346303FB00F0A06370BD002C0140CE
:1025A8008C0000200004004000040048980200202D
:1025B80089B5F8149C020020000000205402002075
:1025C80000007A440000C84108B5024800F092F8BB
:1025D80008BD00BF1802002008B5034800F08AF8BB
:1025E800024800F087F808BD58020020DC010020EE
:1025F80008B50248FEF7C0FE08BD00BF88010020EC
:1026080008B50248FEF7B8FE08BD00BF3401002037
:1026180008B50348FEF7B0FE0248FEF7ADFE08BD58
:102628008C000020E000002008B5FEF79DFE08BDE4
:1026380008B5FFF727FFFFF79FFDFFF7BDF8FFF786
:10264800F5F9FFF7ADF9FFF777F90A4C20464FF493
:1026580000410022FEF730FD0A20FFF7F1FE204678
:102668004FF400410122FEF727FD0A20FFF7E8FE9C
:10267800EBE700BF00040048184B5B6803F00C024E
:10268800042A02D0082A02D026E01548704703F42D
:1026980070114FF4701292FAA2F2B2FA82F221FA91
:1026A80002F210498A5C0D49C96A01F00F010F2036
:1026B80090FAA0F0B0FA80F0C1400B48405C13F4E7
:1026C800803F05D0064BB3FBF0F002FB00F07047EB
:1026D800064800FB02F070470548704700100240AA
:1026E8000048E801B84A0008984A000800093D0077
:1026F80000127A0010B5044603681A6912F0020F36
:102708000CD0DA6812F0020F08D06FF002021A61DA
:102718000123037603689B690023037623681A69FB
:1027280012F0040F0CD0DA6812F0040F08D06FF022
:1027380004021A610223237623689B690023237607
:1027480023681A6912F0080F0CD0DA6812F0080F23
:1027580008D06FF008021A61042323762368DB6926
:102768000023237623681A6912F0100F0CD0DA6858
:1027780012F0100F08D06FF010021A6108232376A8
:102788002368DB690023237623681A6912F0010F96
:1027980009D0DA6812F0010F05D06FF001021A6152
:1027A8002046FFF781FE23681A6912F0800F06D0D1
:1027B800DA6812F0800F02D06FF080021A61236885
:1027C8001A6912F0400F06D0DA6812F0400F02D0F2
:1027D8006FF040021A6123681A6912F0200F06D0C0
:1027E800DA6812F0200F02D06FF020021A6110BDD3
:1027F800B0B110B5044690F8393013F0FF0F02D18C
:10280800002380F83830022384F83930214651F803
:10281800040B00F03DFD012384F83930002010BD81
:1028280001207047B0B110B5044690F8393013F064
:10283800FF0F02D1002380F83830022384F83930A2
:10284800214651F8040B00F023FD012384F83930A8
:10285800002010BD01207047F0B583B0044603681E
:1028680013F4803F70D0844BDA6942F08052DA6109
:10287800DB6903F080530193019B804A136843F49A
:1028880080731360FFF714F9054605E0FFF710F9A8
:10289800401B642800F2E980784B1B6813F4807FA2
:1028A800F4D0754B1A6A6368534013F4407F4BD0D9
:1028B8007148016A21F440764FF4803393FAA3F209
:1028C800B2FA82F26E4D012745F8227093FAA3F30B
:1028D800B3FA83F3002245F82320066211F0020FB1
:1028E8002BD0FFF7E5F8054607E0FFF7E1F8401BB6
:1028F80041F28833984200F2BA80022393FAA3F295
:1029080093FAA3F3B3FA83F343F040035B09022B72
:1029180002D1594B1A6A04E0022393FAA3F3564BE7
:102928005A6A022393FAA3F3B3FA83F303F01F035B
:1029380022FA03F313F0010FD7D04F490B6A23F49F
:102948004072636813430B62236813F0010F06D0CB
:1029580049490B6B23F00302A36813430B632368F5
:1029680013F0020F06D044490B6B23F44032E3689E
:1029780013430B63236813F0040F06D03E490B6B17
:1029880023F44022236913430B63236813F0200FB9
:1029980006D039490B6B23F01002E36913430B632C
:1029A800236813F4003F06D033494B6823F48002B0
:1029B800A36B13434B60236813F0400F06D02E49D6
:1029C8000B6B23F02002236A13430B63236813F075
:1029D800080F06D028490B6B23F440126369134390
:1029E8000B63236813F0100F06D023490B6B23F4F5
:1029F8004002A36913430B63236813F4007F06D0D6
:102A08001D494B6823F40002E36A13434B602368B3
:102A180013F0800F06D01849CB6A23F4F872636A62
:102A28001343CB62236813F4807F06D01249CB6A24
:102A380023F47852A36A1343CB62236813F4805FAC
:102A480006D00D490B6B23F48072236B13430B6381
:102A5800236813F4005F0CD007490B6B23F4007252
:102A6800636B13430B63002004E0032002E00320A0
:102A780000E0002003B0F0BD0010024000700040EC
:102A88000004424208B5FFF7F7FD084B5B6803F006
:102A9800F003F02292FAA2F2B2FA82F2D340044A88
:102AA800D35CD840034B186008BD00BF001002403B
:102AB800A84A00080400002070B504460D46B34B30
:102AC8001B6803F007038B4280F09780AF4A1368B6
:102AD80023F007030B431360136803F007038B42CB
:102AE80040F03781036813F0020F06D0A8494B68FD
:102AF80023F0F002836813434B60236813F0010F3F
:102B080000F00B816268012A13D14FF4003393FA65
:102B1800A3F39F4B19684FF4003393FAA3F3B3FA66
:102B280083F303F01F0321FA03F313F0010F28D1F5
:102B380011E1022A13D14FF0007393FAA3F3944BD7
:102B480019684FF0007393FAA3F3B3FA83F303F011
:102B58001F0321FA03F313F0010F12D1FDE0022342
:102B680093FAA3F38A4B1968022393FAA3F3B3FAEF
:102B780083F303F01F0321FA03F313F0010F00F0AE
:102B8800EE8083494B6823F0030313434B60FEF741
:102B98008FFF05466368012B0FD107E0FEF788FF1A
:102BA800401B41F28833984200F2DB80784B5B6827
:102BB80003F00C03042BF1D1AFE0022B17D107E08F
:102BC800FEF776FF401B41F28833984200F2CB8033
:102BD8006F4B5B6803F00C03082BF1D19DE0FEF707
:102BE80067FF401B41F28833984200F2BE80684B71
:102BF8005B6813F00C0FF2D18FE0036813F0020F3B
:102C080006D063494B6823F0F002836813434B6096
:102C1800236813F0010F75D06268012A13D14FF4AD
:102C2800003393FAA3F35A4B19684FF4003393FA1D
:102C3800A3F3B3FA83F303F01F0321FA03F313F0AA
:102C4800010F27D193E0022A13D14FF0007393FAB2
:102C5800A3F34F4B19684FF0007393FAA3F3B3FA39
:102C680083F303F01F0321FA03F313F0010F11D1CB
:102C78007FE0022393FAA3F3454B1968022393FAE2
:102C8800A3F3B3FA83F303F01F0321FA03F313F05A
:102C9800010F70D03E494B6823F0030313434B6088
:102CA800FEF706FF06466368012B0ED106E0FEF725
:102CB800FFFE801B41F2883398425ED8344B5B6834
:102CC80003F00C03042BF2D11CE0022B15D106E013
:102CD800FEF7EEFE801B41F2883398424FD82C4B0A
:102CE8005B6803F00C03082BF2D10BE0FEF7E0FE63
:102CF800801B41F28833984243D8254B5B6813F018
:102D08000C0FF3D1214A136823F007032B431360F8
:102D1800136803F00703AB4235D1236813F0040F9F
:102D280006D01B494B6823F4E062E36813434B6009
:102D3800236813F0080F07D0154A536823F460532B
:102D4800216943EAC10353600020FFF787FB002095
:102D580070BD012070BD012070BD012070BD012033
:102D680070BD032070BD032070BD032070BD01201D
:102D780070BD012070BD012070BD032070BD03200F
:102D880070BD032070BD012070BD00BF002002404F
:102D98000010024030B4036A23F480130362036A0C
:102DA8004468426D22F0807222F4E0420D6842EAE3
:102DB800052223F400138D6843EA05530F4DA842FA
:102DC8000FD005F50065A8420BD005F54065A8426F
:102DD80007D005F58065A84203D005F58065A842AF
:102DE80004D124F480244D6944EA85244460426572
:102DF8004A68C265036230BC704700BF002C0140BE
:102E080030B4036A23F480330362036A4468426D72
:102E180022F4803222F070020D682A4323F4003332
:102E28008D6843EA05430F4DA8420FD005F50065AC
:102E3800A8420BD005F54065A84207D005F5806586
:102E4800A84203D005F58065A84204D124F4803453
:102E58004D6944EA0524446042654A688265036214
:102E680030BC7047002C014010B4846824F47F44BF
:102E780042EA032319430C4384605DF8044B70470E
:102E8800836823F0700341F007010B4383607047A8
:102E980010B4036A23F0100303628469036A24F4FC
:102EA800704444EA023223F0A00343EA011182612C
:102EB80001625DF8044B704710B4036A046A24F099
:102EC80001040462846924F0F00444EA021223F045
:102ED8000A031943826101625DF8044B704700BF21
:102EE80030B4036A23F480530362036A4468C269F6
:102EF80022F0807222F4E6420D6842EA052223F4A9
:102F080000538D6843EA05330F4DA8420FD005F5ED
:102F18000065A8420BD005F54065A84207D005F525
:102F28008065A84203D005F58065A84204D124F441
:102F380080444D6944EA85144460C2614A68026469
:102F4800036230BC704700BF002C014030B4036AF4
:102F580023F480730362036A4468C26922F48032EE
:102F680022F073020D682A4323F400738D6843EA44
:102F78000523184DA84203D005F50065A84206D1DF
:102F880023F40063CD6843EA052323F48063114DDD
:102F9800A8420FD005F50065A8420BD005F540659D
:102FA800A84207D005F58065A84203D005F58065DD
:102FB800A84207D124F440544D6944EA05148D69A8
:102FC80044EA05144460C2614A68C263036230BCC3
:102FD800704700BF002C014030B4036A23F010038F
:102FE8000362036A4468826922F0807222F4E6422E
:102FF8000D6842EA052223F020038D6843EA051391
:10300800174DA84203D005F50065A84206D123F064
:103018008003CD6843EA051323F04003104DA8420E
:103028000FD005F50065A8420BD005F54065A8420C
:1030380007D005F58065A84203D005F58065A8424C
:1030480007D124F440644D6944EA85048D6944EA53
:103058008504446082614A688263036230BC7047B9
:10306800002C014030B4036A23F001030362036AB1
:103078004468826922F4803222F073020D682A4380
:1030880023F002038D682B431C4DA8420FD005F591
:103098000065A8420BD005F54065A84207D005F5A4
:1030A8008065A84203D005F58065A84205D123F0C4
:1030B8000803CD682B4323F00403104DA8420FD01A
:1030C80005F50065A8420BD005F54065A84207D074
:1030D80005F58065A84203D005F58065A84205D1AD
:1030E80024F440744D692C438D692C4344608261FB
:1030F8004A684263036230BC704700BF002C01403D
:10310800124B1A6842F001021A605968104A0A40C4
:103118005A601A6822F0847222F480321A601A689F
:1031280022F480221A605A6822F4FE025A60DA6A8F
:1031380022F00F02DA62196B064A0A401A6300226B
:103148009A604FF00062044B9A607047001002408A
:103158000CC07FF8CCFC00FF00ED00E038B590F81B
:103168003830012B00F091800D460446012380F889
:103178003830022380F83930082A32D003D84AB1CF
:10318800042A1AD07AE0102A52D0142A63D00C2AC2
:1031980074D139E00068FFF765FF2268936943F04E
:1031A800080393612268936923F0040393612268FA
:1031B80091692B690B43936160E00068FFF70CFF8E
:1031C8002268936943F4006393612268936923F446
:1031D8008063936122689369296943EA01239361B3
:1031E8004CE00068FFF7B2FE2268D36943F0080399
:1031F800D3612268D36923F00403D3612268D169BB
:103208002B690B43D36139E00068FFF769FE226838
:10321800D36943F40063D3612268D36923F48063DC
:10322800D3612268D369296943EA0123D36125E080
:103238000068FFF7E5FD2268536D43F00803536506
:103248002268536D23F0040353652268516D2B697E
:103258000B43536512E00068FFF79CFD2268536D2D
:1032680043F4006353652268536D23F48063536508
:103278002268536D296943EA01235365012384F8C1
:103288003930002084F8380038BD022038BD00BF2E
:1032980003682A4A90420ED0B0F1804F0BD0A2F5B5
:1032A8009432904207D002F58062904203D002F532
:1032B8009632904203D123F070034A6813431F4AA1
:1032C80090421AD0B0F1804F17D0A2F594329042B4
:1032D80013D002F5806290420FD002F596329042E8
:1032E8000BD002F54062904207D002F5806290420E
:1032F80003D002F58062904203D123F44073CA6878
:10330800134303608B68C3620B6883620B4B98425C
:103318000FD003F5006398420BD003F54063984241
:1033280007D003F58063984203D003F58063984281
:1033380001D10B690363012343617047002C0140ED
:1033480090F83830012B00F0888010B50B46044601
:10335800012280F83820022280F839200168886824
:103368003F4A02408A601A68402A52D00AD8102A76
:103378005ED002D8002A56D068E0202A5DD0302AD4
:1033880060D063E0702A14D004D8502A2DD0602A67
:1033980035D05BE0B2F5805F03D0B2F5005F18D09E
:1033A80054E02268936823F4803323F00703936082
:1033B8004CE0206899685A68DB68FFF755FD226879
:1033C800936823F4803323F0770343F07703936003
:1033D8003CE0206899685A68DB68FFF745FD226879
:1033E800936843F48043936030E020685968DA6852
:1033F800FFF762FD20685021FFF742FD26E02068B4
:103408005968DA68FFF744FD20686021FFF738FD46
:103418001CE020685968DA68FFF74EFD20684021F3
:10342800FFF72EFD12E020680021FFF729FD0DE0CF
:1034380020681021FFF724FD08E020682021FFF70D
:103448001FFD03E020683021FFF71AFD012384F8EF
:103458003930002084F8380010BD0220704700BFC2
:103468008800FEFFDFF834D0002103E00C4B5B58E6
:10347800435004310B480C4B42189A42F6D30B4A7E
:1034880002E0002342F8043B094B9A42F9D3FFF7C4
:1034980037FE01F0CBFAFFF7CBF8FEE700800020FB
:1034A800B44C0008000000207000002070000020CC
:1034B800A0020020FEE7000030B5224A21F00043B8
:1034C800934287B01BDD204A934205DD02460B4636
:1034D800FDF77CF907B030BD02AA00F08DF800F0C6
:1034E800030001281ED0022811D010B3DDE9020123
:1034F800DDE9042300F068FB01F10041EAE700235D
:1035080000930022002301F087F807B030BD0124A2
:10351800DDE90201DDE90423009401F07DF801F101
:103528000041D7E7DDE90201DDE9042300F04CFBA7
:10353800D0E70124DDE90201DDE90423009401F06C
:103548006BF8C7E7FB21E93FFFFFEF7F2DE9F04765
:10355800DFF8A0A08AB006460F4600F071FA9AF983
:103568000030013304460D460FD03046394601F08D
:103578009BF950B14FF000084FF0000942464B4606
:1035880030463946FDF748FD20B9204629460AB09D
:10359800BDE8F087164B9AF80040019301220023FA
:1035A800CDE90467CDE902670092089364B9CDE9D3
:1035B8000689684601F0A4F980B1089B9BB9DDE94A
:1035C80006010AB0BDE8F0874046494642464B46E8
:1035D800FDF7DAFB022CCDE90601EAD101F020FA69
:1035E80021230360E9E701F01BFA089B0360E6E783
:1035F800C84A0008080000202DE9F04F964E21F037
:10360800004BB3458FB00C4640F381809246934AF5
:10361800934526DC002986A3D3E9002340F3A8813B
:10362800FDF7D4F88E4B9B4504460D4600F0848088
:1036380081A3D3E90023FDF7C9F802460B46CAE97E
:10364800002320462946FDF7C1F87BA3D3E90023D0
:10365800FDF7BCF80125CAE9020128460FB0BDE80C
:10366800F08F804A934540F384807F4A934559DC24
:103678004FEA2B55A5F21645ABEB055739460646DA
:10368800FDF7F2FCFDF7F0F98046894602460B4645
:1036980030463946CDE90889FDF798F80022734B82
:1036A800FDF748FA0F460646FDF7DEFCFDF7DCF9A4
:1036B80002460B468046894630463946CDE90A8996
:1036C800FDF784F80022694BFDF734FA0022002345
:1036D800CDE90C01FDF796FC002800F07581002368
:1036E800404649460022FDF78DFC002814BF0123FF
:1036F800022302225E49009201912A4608A85146F7
:1037080000F086FB002CC0F25181054606E0C2E9B4
:10371800000100250024C2E90245002528460FB013
:10372800BDE8F08F02460B46FDF750F80025CAE9C0
:103738000201CAE90001F1E741A3D3E90023FDF73B
:1037480045F841A3D3E900230D460446FDF73EF8AA
:1037580002460B46CAE9002329462046FDF736F8FB
:1037680039A3D3E90023FDF731F80125CAE902019D
:10377800D4E701F009F836A3D3E9002306460F463B
:10378800FDF7D8F900223B4BFDF722F8FDF76CFC5A
:103798000546FDF769F926A3D3E90023CDE904011D
:1037A800FDF7C8F902460B4630463946FDF70EF8D4
:1037B80021A3D3E9002380468946DDE90401FDF70A
:1037C800B9F91F2DCDE902014046494656DC2A4B7E
:1037D8006A1E53F822305B4550D0DDE90223FCF71E
:1037E800F5FF02460B46CAE9002307460E463A464D
:1037F800334640464946FCF7E9FFDDE90223FCF77A
:10380800E5FF002C02460B46CAE9022386DA06F1D8
:10381800004601F10041CAF80070CAF80460CAF80D
:103828000C10CAF808006D4278E700BFAFF30080BB
:1038380000004054FB21F93F3163621A61B4D03D66
:103848000000601A61B4D03D7370032E8A19A33B3F
:1038580083C8C96D305FE43FFB21E93F7BD9024053
:10386800FB21F93FFB213941FFFFEF7F0000704149
:10387800504B00080000E03FD04A0008DDE9022371
:10388800FCF7A4FF0E464FEA2B5BC6F30A53C3EBC3
:103898000B03102B0746CAE90001A8DD5CA3D3E996
:1038A8000023DDE90401FDF745F906460F463246D7
:1038B8003B4640464946FCF789FFCDE90601DDE96C
:1038C800062340464946FCF781FF32463B46FCF753
:1038D8007DFF51A3D3E9002306460F46DDE9040125
:1038E800FDF728F932463B46FCF770FFCDE90201A7
:1038F800DDE90223DDE90601FCF768FF0E46C1F3A6
:103908000A51C1EB0B0B02463346BBF1310F074698
:10391800CAE9002378DD42A3D3E90023DDE90401E5
:10392800FDF708F906460F4632463B46DDE9060133
:10393800FCF74CFF8046894642464B46DDE90601C6
:10394800FCF744FF32463B46FCF740FF36A3D3E979
:10395800002306460F46DDE90401FDF7EBF8324681
:103968003B46FCF733FFCDE902014046494634E7C0
:10397800FCF72EFF304B9B4504460D4626D02CA362
:10398800D3E90023FCF724FF02460B46CAE90023CB
:1039980029462046FCF71AFF25A3D3E90023FCF7A4
:1039A80017FF4FF0FF35CAE90201B7E6DAF804203D
:1039B800DAF80C3002F1004203F100434542CAF83C
:1039C8000420CAF80C30A9E6032392E610A3D3E931
:1039D8000023FCF7FDFE10A3D3E900230D4604469F
:1039E800FCF7F6FE02460B46CAE9002329462046A4
:1039F800FCF7ECFE08A3D3E90023FCF7E9FE4FF03F
:103A0800FF35CAE9020189E6DDE90689EFE600BF6C
:103A18000000601A61B4D03D7370032E8A19A33B6D
:103A28000000002E8A19A33BC14920259A837B39BF
:103A38003163621A61B4D03DFB21F93FAFF30080D6
:103A48002DE9F8435F4EB6460E4076450C460B46C8
:103A5800054600F097800029024676DD0F1500F034
:103A68008180A7F2FF37C3F31303F80743F48013E9
:103A780060D4D10F002601EB43037F105200B646F5
:103A880016204FF400110EEB01049C424FEAD27548
:103A98004FEA420203DC1B1B04EB010E0E44013803
:103AA80005EB43034FEA5101EDD1844620254FF041
:103AB80000410AE0734521D0D40F013D4FEA51017E
:103AC80004EB43034FEA420221D09E450CEB01046C
:103AD800F0DA002C04EB010C0ADBF046CEEB030312
:103AE800944288BF03F1FF33121B0844C646E3E73C
:103AF800BCF1000FF1DB0EF10108EFE7944217D893
:103B0800002C04EB010C47DB98460023ECE7134339
:103B180015D14008731003F17F5303F50013F20722
:103B280003EB075948BF40F000404946BDE8F88319
:103B38009E46C1E7D10F01EB4303520099E7411CB0
:103B480030D000F001031844E3E721F000460643B3
:103B5800ECD071BB0F46D30A153F5205002BFAD0A3
:103B6800DD0222D400215B00DC0201F10101FAD55B
:103B7800C1F10100C1F1200422FA04F423430744EF
:103B88008A406EE702460B46FCF7D4FF2A462346D6
:103B9800FCF71EFEBDE8F883BCF1000FABDAF04677
:103BA8000023A1E701362846B4E72024012000219C
:103BB800E2E702460B46FCF709FE02460B46FDF714
:103BC800E3F8B3E70000F07F2DE9F04F21F000475C
:103BD800B7F1795F85B00C4692469B4605466BDA8D
:103BE800FDF742FA002800F0E8802A4623462846D6
:103BF8002146FCF79FFF74A3D3E90023804689463A
:103C0800FCF798FF72A3D3E90023FCF7E1FD4246D5
:103C18004B46FCF78FFF70A3D3E90023FCF7D6FDD2
:103C280042464B46FCF786FF6DA3D3E90023FCF719
:103C3800CFFD42464B46FCF77DFF6BA3D3E900233B
:103C4800FCF7C4FD42464B46FCF774FF68A3D3E972
:103C58000023FCF7BDFD42464B46FCF76BFFCDE960
:103C68000001404649460022634BFCF763FFDDE94B
:103C7800002306460F4640464946FCF75BFF52467E
:103C8800804689465B4628462146FCF753FF024694
:103C98000B4640464946FCF799FD02460B4630461E
:103CA8003946FCF793FD02460B4600205349FCF7C2
:103CB8008DFD05B0BDE8F08F02460B46FCF73AFFD4
:103CC80041A3D3E9002380468946FCF733FF40A38C
:103CD800D3E90023FCF77CFD42464B46FCF72AFF5C
:103CE8003DA3D3E90023FCF771FD42464B46FCF7A0
:103CF80021FF3BA3D3E90023FCF76AFD42464B466C
:103D0800FCF718FF38A3D3E90023FCF75FFD424610
:103D18004B46FCF70FFF36A3D3E90023FCF758FD09
:103D28004B464246FCF706FF354B9F42CDE9000162
:103D380097DD344B9F424FF0000238DCA7F50013A3
:103D480000202E4916461F46FCF740FDCDE902012A
:103D5800404649460022284BFCF7ECFE32463B46DB
:103D6800FCF734FDDDE9002306460F464046494688
:103D7800FCF7E0FE5246804689465B4628462146C7
:103D8800FCF7D8FE02460B4640464946FCF71EFDA6
:103D980002460B4630463946FCF718FD02460B46EC
:103DA800DDE90201FCF712FD05B0BDE8F08F164B06
:103DB800164FCDE902230026CAE71049002005B0B6
:103DC800BDE8F08FAFF30080D43888BEE9FAA8BD0B
:103DD800C4B1B4BD9EEE213EAD529C804F7E923E52
:103DE8009015CB19A001FA3E7751C1166CC1563F08
:103DF8004C5555555555A53F0000E03F0000F03F94
:103E08003233D33F0000E93F0000E73F0000D23FD4
:103E18002DE9F04FADF51D7D7B4CA69E7B4D54F8EA
:103E2800264009942646D41E85FB0475E417C4EB86
:103E3800A50424EAE4741D460C93E34303EB43030F
:103E4800013D02EBC30308932B460D940395651BB4
:103E58009C1904900A9116D42C44013422AEA79FD1
:103E680008E057F82500FCF7FFFD0135A542E6E913
:103E7800020108D0002DF4DA013500200021A54206
:103E8800E6E90201F6D1099B002B31DB099A0C9B6C
:103E980074A901EBC20BC3EB4373039A24A9DB009B
:103EA80001EBC20800930DF5E479039B002BC0F2E7
:103EB8009981049BA3F1080A009B444608EB03057B
:103EC80000260027FAE9022374E80201FCF732FE13
:103ED80002460B4630463946FCF77AFCAC420646A9
:103EE8000F46EFD1E9E90267D94508F10808DCD1A6
:103EF800099901F18043013B9B001A1D10A8024457
:103F080003440F920E938B464FEACB039CA91A46A3
:103F18000693BBF1000F0B4453E9284528DD0DF546
:103F2800E87A0AEB02060FAF0022394B20462946F1
:103F3800FCF700FEFDF798F8FCF796FD0022354BDC
:103F480080468946FCF7F6FD02460B462046294680
:103F5800FCF73CFCFDF788F876E9022347F8040FE4
:103F680049464046FCF734FC564504460D46DBD12D
:103F7800DDF82090204629464A4600F0C5FC00227C
:103F88004FF07F5304460D46FCF7D4FD00F000FCCB
:103F98000022214BFCF7CEFD02460B46204629465F
:103FA800FCF714FC04460D46FDF75EF88046FCF766
:103FB8005BFD02460B4620462946FCF707FC4C46AB
:103FC800002C06460F4640F3F3800BF1FF3110AB8F
:103FD800C9F1180253F8213043FA02F000FA02F549
:103FE80010AA5D1BC9F1170342F8215080441D41F6
:103FF800002D3EDDBBF1000F08F1010840F38A8275
:10400800002214460FA911E0584C0008ABAAAA2AAE
:104018000000703E0000704100002040C3F1807035
:104028000BB108600124013293450DDD51F8043FBE
:10403800002CF3D0C3F1FF13013203F57F439345FE
:104048000B604FF00104F1DC089B002B0EDD012B07
:1040580000F0B680022B09D10BF1FF3210AB10A98A
:1040680053F82230C3F3150341F82230022D00F033
:1040780086803046394600220023FCF7C3FF00281B
:1040880000F0CC80099B0BF1FF3A53450DDC10ABD7
:104098000F9803EB8B03002253F8041D834242EA76
:1040A8000102F9D1002A40F01B82099B10AA013BAA
:1040B80052F82330002B40F02B820E9A012352F83D
:1040C800041D01330029FAD05B441A460B930BF107
:1040D800010393424DDC0D9A03EB02090B9A0C9BEA
:1040E80009F180495B44CBEB020BA79A09F1FF3930
:1040F80002EB890200924FEACB02DB00059224AA68
:1041080002EB030B0793069B74AA02EB030A4FF01A
:104118000008009B53F8040F0093FCF7A5FC039BD1
:10412800002BEBE8020127DB079B03EB0804069B47
:1041380008EB030524AB1C441D44049B0026A3F193
:1041480008090027F9E9022374E80201FCF7F2FCE8
:1041580002460B4630463946FCF73AFBAC42064667
:104168000F46EFD1059B08F108089845EAE9026770
:10417800CFD1DDF82CB0C7E600260027F2E732469B
:104188003B460020C049FCF721FB06460F46002CA1
:104198003FF46FAF089ABC49002000F0B5FB024617
:1041A8000B4630463946FCF711FB06460F4660E7DA
:1041B80011D10BF1FF3310AA52F82350ED1517E770
:1041C8000BF1FF3210AB10A953F82230C3F31603DA
:1041D80041F822304AE70022AC4BFCF731FF58B9CE
:1041E800054646E700260027E9E90267D94508F1B0
:1041F80008087FF45AAE7BE6BBF1000F08F101080E
:10420800C8BF02253FF7FCAE32463B4600209E4918
:10421800FCF7DCFA022506460F462AE7089B0395B9
:104228005A4230463946CDF8148000F06DFB002222
:10423800974B04460D46FCF703FF002800F0E38186
:104248000022944B20462946FCF774FCFCF70CFF2F
:104258000646FCF709FC00228D4BFCF76BFC0B466D
:10426800024629462046FCF7B1FAFCF7FDFE089BFA
:1042780018330BF1010A089310AB43F82B0043F8ED
:104288002A60089A8049002000F03EFBBAF1000F2E
:1042980004460D46C0F2CD800AF101034FEAC30877
:1042A80074AF10AA009302EB830907EB080659F8CC
:1042B800040DFCF7D9FB22462B46FCF73BFC0022F9
:1042C80066E90201734B20462946FCF733FCBE42DF
:1042D80004460D46EBD1A8F1080806EB08030DF5D6
:1042E8009879CDF818A0DDF824A0CDF810904FF0FB
:1042F80000089B46BAF1000FC0F29880B8F1000F91
:10430800C0F29480DFF890915D46002600270024D3
:1043180001E0444510DCF9E90223F5E80201FCF765
:1043280009FC02460B4630463946FCF751FA01347F
:10433800A24506460F46ECDA049B03EBC803C3E923
:104348000067009B08F101089845ABF1080BD1D133
:10435800A69BDDF818A0DDF81090032B3DD8DFE808
:1043680013F0430004000400DB00009B002409EB69
:10437800C30625462046294676E90223FCF728FA93
:104388004E4504460D46F5D1039B002B00F08E8068
:104398000A982B4605F10045224680E83000D9E905
:1043A8000001FCF713FABAF1000F02460B460DDDC7
:1043B800012410461946F9E90223FCF709FA0134E9
:1043C800A24502460B46F4DA039909B103F100430A
:1043D80019460A9B1046C3E90201059B03F0070032
:1043E8000DF51D7DBDE8F08F009B002209EBC30988
:1043F80013461046194679E90223FCF7E9F90AF150
:10440800FF3ABAF1FF3F02460B46F2D1039909B1D0
:1044180003F1004319460A9B1046C3E90001059BB6
:1044280003F007000DF51D7DBDE8F08F002600277D
:1044380082E7A69B032BD0D8DFE803F04F30300289
:104448000DF59879039B00273E46002B00F0C780A6
:10445800D9F80C300A9DD9F80400D9F80020D9F809
:1044680008102F6103F10043EB60059B2A6000F1FF
:10447800004006F10046686003F007006E61A9601D
:104488000DF51D7DBDE8F08F0000F03F0000E03F16
:10449800000070410000703E604C0008039B00243F
:1044A80025460DF59879002B7FF472AF20462246F9
:1044B8000A9C29462B46C4E90001D9E90001FCF70A
:1044C80085F9BAF1000F02460B463FF771AF19465E
:1044D8000A9B1046C3E902017FE70022134695E7CD
:1044E80010AB089A53F82A300395183ACDF814807F
:1044F8000892002B7FF4C5AE10AB03EB8A0353F888
:10450800041D0AF1FF3A183A0029F8D00892B8E6D3
:104518000123D9E5002497E5BAF1000F92DD4FEAAF
:10452800CA0809EB080BDBE900677BE90223304680
:104538003946CDE90023FCF74BF904460D462246DF
:104548002B46DDE90001FCF741F902460B463046EF
:104558003946FCF73DF9CB4526462F46CBE9020103
:10456800CBE90045E1D1BAF1010F7FF76BAF09EB59
:10457800080ADAE900670DF59C7B7AE90223104600
:10458800194632463B46CDE90001FCF721F90446BD
:104598000D4622462B46DDE90001FCF717F93246A5
:1045A8003B46FCF715F9DA4526462F46CAE90201CB
:1045B800CAE90045E1D108F1080400274C443E4609
:1045C80050AD3846314674E90223FCF701F9AC4294
:1045D80007460E46F5D1039B002B7FF439AFD9E986
:1045E80000233C460A9FD9E90201C7E90023059B3D
:1045F8003546C7E9020103F00700C7E904450DF590
:104608001D7DBDE8F08F20462946FCF72DFD10AB37
:10461800DA4643F82B0034E62DE9F04F21F0004646
:10462800B6F1795F85B00C4690469946054604DA9E
:10463800FCF71AFD002800F083802A462346284606
:104648002146FCF777FA2A46234606460F46FCF72A
:1046580071FA3FA3D3E9002382468B463046394698
:10466800FCF768FA3CA3D3E90023FCF7AFF832461D
:104678003B46FCF75FFA3AA3D3E90023FCF7A8F816
:1046880032463B46FCF756FA37A3D3E90023FCF73A
:104698009DF832463B46FCF74DFA35A3D3E9002393
:1046A800FCF796F80E9BCDE900019BB340464946BE
:1046B8000022334BFCF73EFADDE90023CDE9020185
:1046C80050465946FCF736FA02460B46DDE9020128
:1046D800FCF77CF832463B46FCF72CFA42464B4640
:1046E800FCF774F824A3D3E9002306460F46504686
:1046F8005946FCF71FFA02460B4630463946FCF786
:1047080067F802460B4628462146FCF75FF805B0D5
:10471800BDE8F08FDDE9002330463946FCF70AFA98
:1047280015A3D3E90023FCF751F852465B46FCF782
:1047380001FA2A462346FCF74BF805B0BDE8F08F8E
:104748002846214605B0BDE8F08F00BFAFF30080D2
:104758007CD5CF5A3AD9E53DEB9C2B8AE6E55A3E03
:104768007DFEB157E31DC73ED561C119A0012A3F9F
:10477800A6F810111111813F495555555555C53F9A
:104788000000E03FAFF3008021F00041704700BF18
:104798002DE9F047C1F30A58A8F2FF36132E0B464D
:1047A8000D4604460246894607461DDC002E40DBBE
:1047B800DFF8F08048FA06F808EA010E5EEA02021D
:1047C80017D035A3D3E90023FCF702F80022002311
:1047D800FCF740FC20B1002D40DB29EA0805002742
:1047E80038462946BDE8F087332E06DDB6F5806FDA
:1047F8002FD020461946BDE8F087A8F213424FF0A3
:10480800FF3A2AFA02FA1AEA000FF2D022A3D3E9F1
:104818000023FBF7DDFF00220023FCF71BFC002828
:10482800DED0002D1FDB4D4627EA0A073846294609
:10483800D8E719A3D3E90023FBF7CAFF0022002316
:10484800FCF708FC0028CBD0002D1ADB00273D46DA
:10485800C6E702460B46FBF7BBFFCCE74FF48013D5
:1048680033419944B9E7142E08D0C8F5866808F191
:104878000308012303FA08F31F19D4D309F1010926
:10488800D1E725F00042064B224318BF1D460027FA
:10489800A6E700BFAFF300809C7500883CE4377E34
:1048A8000000F0BFFFFF0F0010B431F0004408D043
:1048B800114BA1F580129A4208D804205DF8044BE8
:1048C800704718B902205DF8044B704701F1FF41A9
:1048D800094B01F5E0019942EFD9B4F5801F01D2E7
:1048E8000320EBE7054B9C4201D00020E6E7B0FA35
:1048F80080F04009E2E700BFFFFFDF7F0000F07FA4
:104908000020704700000000F8B5C1F30A560446BD
:104918000D460B46174616BB21F00043034332D021
:104928000022374BFCF706F9364A974204460D46F3
:104938000B4637DBC1F30A56363E3E4440F2FE7260
:10494800964215DD22462B4629A1D1E9000100F047
:104958005FF827A3D3E90023FCF7ECF8F8BD40F291
:10496800FF72964224D03E4440F2FE729642E9DC41
:10497800002E09DD23F0FF4323F4E00343EA065544
:1049880020462946F8BDF8BD16F1350F15DA4CF268
:1049980050339F4222462B461DDC17A1D1E9000166
:1049A80000F036F814A3D3E90023FCF7C3F8F8BDE8
:1049B80002460B46FBF70CFFF8BD23F0FF4323F438
:1049C800E003363643EA06552046294600220E4BB8
:1049D800FCF7B0F8F8BD06A1D1E9000100F018F81D
:1049E80003A3D3E90023FCF7A5F8F8BDAFF30080D3
:1049F8009C7500883CE4377E59F3F8C21F6EA50108
:104A080000005043B03CFFFF0000903CAFF3008033
:104A180003F0004321F0004243EA0201704700BF5F
:104A2800014B1868704700BF6C00002070B50E4B32
:104A38000E4CE41AA41000251E46A54204D056F8D0
:104A4800253098470135F8E700F016F8084C094B6F
:104A5800E41AA41000251E46A54204D056F82530B5
:104A680098470135F8E770BDAC4C0008AC4C00081D
:104A7800B04C0008AC4C0008F8B500BFF8BC08BC46
:104A88009E467047F8B500BFF8BC08BC9E46704704
:104A98000102030405060708090A0B0C0D0E0F1086
:104AA80000000000010203040102030406070809CC
:104AB80002030405060708090A0B0C0D0E0F101057
:104AC8007371727400000000FB21F93FFB2109405B
:104AD8007CD91240FB2119407A6A1F407CD92240B8
:104AE800BBFD2540FB2129403A462C407A6A2F40DD
:104AF8005C4731407CD932409C6B3440BBFD35402B
:104B0800DB8F3740FB2139401BB43A403A463C40E2
:104B18005AD83D407A6A3F404C7E40405C4741400D
:104B28006C1042407CD942408CA243409C6B44406C
:104B3800AC344540BBFD4540CBC64640DB8F4740C3
:104B4800EB584840FB21494083F9A200444E6E00CF
:104B5800FC291500D1572700DD34F50062DBC000C1
:104B68003C999500419043006351FE00BBDEAB00C9
:104B7800B761C5003A6E2400D24D42004906E000F4
:104B880009EA2E001C92D100EB1DFE0029B11C0081
:104B9800E83EA700F535820044BB2E009CE984005E
:104BA800B4267000417E5F00D691390053833900E6
:104BB8009CF439008B5F840028F9BD00F81F3B0086
:104BC800DEFF97000F980500112FEF000A5A8B009F
:104BD8006D1F6D00CF7E360009CB2700464FB7000A
:104BE8009E663F002DEA5F00BA277500E5EBC70017
:104BF8003D7BF100F739070092528A00FB6BEA000F
:104C08001FB15F00085D8D00300356007BFC460035
:104C1800F0AB6B0020BCCF0036F49A00E3A91D006E
:104C28005E619100081BE60085996500A0145F008D
:104C38008D40680080D8FF0027734D0006063100BC
:104C4800CA561500C9A873007BE260006B8CC000CF
:104C5800020000000300000004000000060000003D
:104C680000000040FB21F93F000000002D44743E85
:104C7800000000809846F83C0000006051CC783B6A
:104C880000000080831BF0390000004020257A389E
:104C9800000000802282E336000000001DF3693521
:044CA80043000000C5
:044CAC00AD0100084E
:044CB000890100086E
:104CB400DB0F494000127A000100000000000000F0
:104CC40000000000000000000000000000000000E0
:104CD400000000000000000000000000A84C0008D4
:104CE40000000000000000000000000000000000C0
:104CF40000000000000000000000000000000000B0
:104D0400000000000000000000000000000000009F
:104D14000000000000000000000000000C00002063
:040000050800346D4E
:00000001FF
